{
  "contractName": "Quiz",
  "abi": [
    {
      "constant": true,
      "inputs": [],
      "name": "numQuizzes",
      "outputs": [
        {
          "name": "",
          "type": "uint256"
        }
      ],
      "payable": false,
      "stateMutability": "view",
      "type": "function",
      "signature": "0x9a8fc0b8"
    },
    {
      "inputs": [],
      "payable": false,
      "stateMutability": "nonpayable",
      "type": "constructor",
      "signature": "constructor"
    },
    {
      "anonymous": false,
      "inputs": [
        {
          "indexed": true,
          "name": "_quizId",
          "type": "uint256"
        }
      ],
      "name": "fetchquiz",
      "type": "event",
      "signature": "0x74b91515a354f13aa884eed46cea33aa37533250f496f869b474fb7449099a2b"
    },
    {
      "anonymous": false,
      "inputs": [
        {
          "indexed": true,
          "name": "_quizId",
          "type": "uint256"
        }
      ],
      "name": "quiztaken",
      "type": "event",
      "signature": "0xe47940e15c49852a5ea2c5fbe9b1507d39b06a6504f4c2404f6e131ec222af0a"
    },
    {
      "constant": false,
      "inputs": [
        {
          "name": "_name",
          "type": "string"
        },
        {
          "name": "_fee",
          "type": "uint256"
        },
        {
          "name": "_pool",
          "type": "uint256"
        },
        {
          "name": "_question",
          "type": "string"
        },
        {
          "name": "_ans1",
          "type": "string"
        },
        {
          "name": "_ans2",
          "type": "string"
        },
        {
          "name": "_ans3",
          "type": "string"
        },
        {
          "name": "_ans4",
          "type": "string"
        }
      ],
      "name": "makeQuiz",
      "outputs": [],
      "payable": false,
      "stateMutability": "nonpayable",
      "type": "function",
      "signature": "0x0276266e"
    },
    {
      "constant": true,
      "inputs": [
        {
          "name": "_quizId",
          "type": "uint256"
        }
      ],
      "name": "getQuizDisp",
      "outputs": [
        {
          "name": "",
          "type": "uint256"
        },
        {
          "name": "",
          "type": "string"
        },
        {
          "name": "",
          "type": "uint256"
        },
        {
          "name": "",
          "type": "uint256"
        }
      ],
      "payable": false,
      "stateMutability": "view",
      "type": "function",
      "signature": "0x60907be8"
    },
    {
      "constant": true,
      "inputs": [
        {
          "name": "_quizId",
          "type": "uint256"
        }
      ],
      "name": "getQuiz",
      "outputs": [
        {
          "name": "",
          "type": "string"
        },
        {
          "name": "",
          "type": "string"
        },
        {
          "name": "",
          "type": "string"
        },
        {
          "name": "",
          "type": "string"
        },
        {
          "name": "",
          "type": "string"
        }
      ],
      "payable": false,
      "stateMutability": "view",
      "type": "function",
      "signature": "0xa3f7e096"
    },
    {
      "constant": false,
      "inputs": [
        {
          "name": "_quizId",
          "type": "uint256"
        }
      ],
      "name": "payToPlay",
      "outputs": [],
      "payable": true,
      "stateMutability": "payable",
      "type": "function",
      "signature": "0x7b82578f"
    },
    {
      "constant": true,
      "inputs": [],
      "name": "getNum",
      "outputs": [
        {
          "name": "",
          "type": "uint256"
        }
      ],
      "payable": false,
      "stateMutability": "view",
      "type": "function",
      "signature": "0x67e0badb"
    },
    {
      "constant": true,
      "inputs": [
        {
          "name": "_quizId",
          "type": "uint256"
        }
      ],
      "name": "getPoolAmount",
      "outputs": [
        {
          "name": "",
          "type": "uint256"
        }
      ],
      "payable": false,
      "stateMutability": "view",
      "type": "function",
      "signature": "0x41af4858"
    },
    {
      "constant": true,
      "inputs": [
        {
          "name": "_quizId",
          "type": "uint256"
        }
      ],
      "name": "getCorr",
      "outputs": [
        {
          "name": "",
          "type": "string"
        }
      ],
      "payable": false,
      "stateMutability": "view",
      "type": "function",
      "signature": "0x99eb6950"
    },
    {
      "constant": true,
      "inputs": [
        {
          "name": "_quizId",
          "type": "uint256"
        },
        {
          "name": "_ans",
          "type": "string"
        }
      ],
      "name": "scoreAttempt",
      "outputs": [
        {
          "name": "",
          "type": "bool"
        }
      ],
      "payable": false,
      "stateMutability": "view",
      "type": "function",
      "signature": "0x888c9663"
    },
    {
      "constant": false,
      "inputs": [],
      "name": "userPay",
      "outputs": [],
      "payable": true,
      "stateMutability": "payable",
      "type": "function",
      "signature": "0x75f3349d"
    }
  ],
  "bytecode": "0x60806040523480156200001157600080fd5b5060006003819055506200017b6040805190810160405280600b81526020017f54657374205175697a20310000000000000000000000000000000000000000008152506001600a6040805190810160405280600481526020017f322b323d000000000000000000000000000000000000000000000000000000008152506040805190810160405280600181526020017f34000000000000000000000000000000000000000000000000000000000000008152506040805190810160405280600181526020017f33000000000000000000000000000000000000000000000000000000000000008152506040805190810160405280600181526020017f35000000000000000000000000000000000000000000000000000000000000008152506040805190810160405280600181526020017f320000000000000000000000000000000000000000000000000000000000000081525062000181640100000000026401000000009004565b6200047e565b60036000815480929190600101919050555060a060405190810160405280600354815260200189815260200188815260200187815260200160a0604051908101604052808881526020018781526020018681526020018581526020018481525081525060016000600354815260200190815260200160002060008201518160000155602082015181600101908051906020019062000221929190620003cf565b50604082015181600201556060820151816003015560808201518160040160008201518160000190805190602001906200025d929190620003cf565b5060208201518160010190805190602001906200027c929190620003cf565b5060408201518160020190805190602001906200029b929190620003cf565b506060820151816003019080519060200190620002ba929190620003cf565b506080820151816004019080519060200190620002d9929190620003cf565b50505090505060806040519081016040528060035481526020018981526020018881526020018781525060026000600354815260200190815260200160002060008201518160000155602082015181600101908051906020019062000340929190620003cf565b50604082015181600201556060820151816003015590505060018060006003548152602001908152602001600020600a0160003373ffffffffffffffffffffffffffffffffffffffff1673ffffffffffffffffffffffffffffffffffffffff16815260200190815260200160002060006101000a81548160ff0219169083151502179055505050505050505050565b828054600181600116156101000203166002900490600052602060002090601f016020900481019282601f106200041257805160ff191683800117855562000443565b8280016001018555821562000443579182015b828111156200044257825182559160200191906001019062000425565b5b50905062000452919062000456565b5090565b6200047b91905b80821115620004775760008160009055506001016200045d565b5090565b90565b611722806200048e6000396000f3fe6080604052600436106100a4576000357c0100000000000000000000000000000000000000000000000000000000900463ffffffff1680630276266e146100a957806341af48581461047957806360907be8146104c857806367e0badb1461059157806375f3349d146105bc5780637b82578f146105c6578063888c9663146105f457806399eb6950146106de5780639a8fc0b814610792578063a3f7e096146107bd575b600080fd5b3480156100b557600080fd5b5061047760048036036101008110156100cd57600080fd5b81019080803590602001906401000000008111156100ea57600080fd5b8201836020820111156100fc57600080fd5b8035906020019184600183028401116401000000008311171561011e57600080fd5b91908080601f016020809104026020016040519081016040528093929190818152602001838380828437600081840152601f19601f82011690508083019250505050505050919291929080359060200190929190803590602001909291908035906020019064010000000081111561019557600080fd5b8201836020820111156101a757600080fd5b803590602001918460018302840111640100000000831117156101c957600080fd5b91908080601f016020809104026020016040519081016040528093929190818152602001838380828437600081840152601f19601f8201169050808301925050505050505091929192908035906020019064010000000081111561022c57600080fd5b82018360208201111561023e57600080fd5b8035906020019184600183028401116401000000008311171561026057600080fd5b91908080601f016020809104026020016040519081016040528093929190818152602001838380828437600081840152601f19601f820116905080830192505050505050509192919290803590602001906401000000008111156102c357600080fd5b8201836020820111156102d557600080fd5b803590602001918460018302840111640100000000831117156102f757600080fd5b91908080601f016020809104026020016040519081016040528093929190818152602001838380828437600081840152601f19601f8201169050808301925050505050505091929192908035906020019064010000000081111561035a57600080fd5b82018360208201111561036c57600080fd5b8035906020019184600183028401116401000000008311171561038e57600080fd5b91908080601f016020809104026020016040519081016040528093929190818152602001838380828437600081840152601f19601f820116905080830192505050505050509192919290803590602001906401000000008111156103f157600080fd5b82018360208201111561040357600080fd5b8035906020019184600183028401116401000000008311171561042557600080fd5b91908080601f016020809104026020016040519081016040528093929190818152602001838380828437600081840152601f19601f820116905080830192505050505050509192919290505050610a21565b005b34801561048557600080fd5b506104b26004803603602081101561049c57600080fd5b8101908080359060200190929190505050610c61565b6040518082815260200191505060405180910390f35b3480156104d457600080fd5b50610501600480360360208110156104eb57600080fd5b8101908080359060200190929190505050610c9d565b6040518085815260200180602001848152602001838152602001828103825285818151815260200191508051906020019080838360005b83811015610553578082015181840152602081019050610538565b50505050905090810190601f1680156105805780820380516001836020036101000a031916815260200191505b509550505050505060405180910390f35b34801561059d57600080fd5b506105a6610db4565b6040518082815260200191505060405180910390f35b6105c4610dbe565b005b6105f2600480360360208110156105dc57600080fd5b8101908080359060200190929190505050610e03565b005b34801561060057600080fd5b506106c46004803603604081101561061757600080fd5b81019080803590602001909291908035906020019064010000000081111561063e57600080fd5b82018360208201111561065057600080fd5b8035906020019184600183028401116401000000008311171561067257600080fd5b91908080601f016020809104026020016040519081016040528093929190818152602001838380828437600081840152601f19601f820116905080830192505050505050509192919290505050610f0e565b604051808215151515815260200191505060405180910390f35b3480156106ea57600080fd5b506107176004803603602081101561070157600080fd5b8101908080359060200190929190505050611113565b6040518080602001828103825283818151815260200191508051906020019080838360005b8381101561075757808201518184015260208101905061073c565b50505050905090810190601f1680156107845780820380516001836020036101000a031916815260200191505b509250505060405180910390f35b34801561079e57600080fd5b506107a76111ce565b6040518082815260200191505060405180910390f35b3480156107c957600080fd5b506107f6600480360360208110156107e057600080fd5b81019080803590602001909291905050506111d4565b60405180806020018060200180602001806020018060200186810386528b818151815260200191508051906020019080838360005b8381101561084657808201518184015260208101905061082b565b50505050905090810190601f1680156108735780820380516001836020036101000a031916815260200191505b5086810385528a818151815260200191508051906020019080838360005b838110156108ac578082015181840152602081019050610891565b50505050905090810190601f1680156108d95780820380516001836020036101000a031916815260200191505b50868103845289818151815260200191508051906020019080838360005b838110156109125780820151818401526020810190506108f7565b50505050905090810190601f16801561093f5780820380516001836020036101000a031916815260200191505b50868103835288818151815260200191508051906020019080838360005b8381101561097857808201518184015260208101905061095d565b50505050905090810190601f1680156109a55780820380516001836020036101000a031916815260200191505b50868103825287818151815260200191508051906020019080838360005b838110156109de5780820151818401526020810190506109c3565b50505050905090810190601f168015610a0b5780820380516001836020036101000a031916815260200191505b509a505050505050505050505060405180910390f35b60036000815480929190600101919050555060a060405190810160405280600354815260200189815260200188815260200187815260200160a06040519081016040528088815260200187815260200186815260200185815260200184815250815250600160006003548152602001908152602001600020600082015181600001556020820151816001019080519060200190610abf9291906115f8565b5060408201518160020155606082015181600301556080820151816004016000820151816000019080519060200190610af99291906115f8565b506020820151816001019080519060200190610b169291906115f8565b506040820151816002019080519060200190610b339291906115f8565b506060820151816003019080519060200190610b509291906115f8565b506080820151816004019080519060200190610b6d9291906115f8565b505050905050608060405190810160405280600354815260200189815260200188815260200187815250600260006003548152602001908152602001600020600082015181600001556020820151816001019080519060200190610bd29291906115f8565b50604082015181600201556060820151816003015590505060018060006003548152602001908152602001600020600a0160003373ffffffffffffffffffffffffffffffffffffffff1673ffffffffffffffffffffffffffffffffffffffff16815260200190815260200160002060006101000a81548160ff0219169083151502179055505050505050505050565b60008082118015610c7457506003548211155b1515610c7f57600080fd5b60016000838152602001908152602001600020600301549050919050565b60006060600080610cac611678565b600260008781526020019081526020016000206080604051908101604052908160008201548152602001600182018054600181600116156101000203166002900480601f016020809104026020016040519081016040528092919081815260200182805460018160011615610100020316600290048015610d6e5780601f10610d4357610100808354040283529160200191610d6e565b820191906000526020600020905b815481529060010190602001808311610d5157829003601f168201915b5050505050815260200160028201548152602001600382015481525050905080600001518160200151826040015183606001518292509450945094509450509193509193565b6000600354905090565b346000803373ffffffffffffffffffffffffffffffffffffffff1673ffffffffffffffffffffffffffffffffffffffff16815260200190815260200160002081905550565b600081118015610e1557506003548111155b1515610e2057600080fd5b60016000828152602001908152602001600020600a0160003373ffffffffffffffffffffffffffffffffffffffff1673ffffffffffffffffffffffffffffffffffffffff16815260200190815260200160002060009054906101000a900460ff16151515610e8d57600080fd5b610e95610dbe565b34600160008381526020019081526020016000206003016000828254019250508190555060016000828152602001908152602001600020600201543410151515610ede57600080fd5b807f74b91515a354f13aa884eed46cea33aa37533250f496f869b474fb7449099a2b60405160405180910390a250565b60008083118015610f2157506003548311155b1515610f2c57600080fd5b6001600084815260200190815260200160002060090160003373ffffffffffffffffffffffffffffffffffffffff1673ffffffffffffffffffffffffffffffffffffffff16815260200190815260200160002060009054906101000a900460ff161515610f9857600080fd5b60016000848152602001908152602001600020600a0160003373ffffffffffffffffffffffffffffffffffffffff1673ffffffffffffffffffffffffffffffffffffffff16815260200190815260200160002060009054906101000a900460ff16151561100457600080fd5b60016000848152602001908152602001600020600401600101604051602001808280546001816001161561010002031660029004801561107b5780601f1061105957610100808354040283529182019161107b565b820191906000526020600020905b815481529060010190602001808311611067575b505091505060405160208183030381529060405280519060200120826040516020018082805190602001908083835b6020831015156110cf57805182526020820191506020810190506020830392506110aa565b6001836020036101000a0380198251168184511680821785525050505050509050019150506040516020818303038152906040528051906020012014905092915050565b6060600160008381526020019081526020016000206004016001018054600181600116156101000203166002900480601f0160208091040260200160405190810160405280929190818152602001828054600181600116156101000203166002900480156111c25780601f10611197576101008083540402835291602001916111c2565b820191906000526020600020905b8154815290600101906020018083116111a557829003601f168201915b50505050509050919050565b60035481565b60608060608060606000861180156111ee57506003548611155b15156111f957600080fd5b60016000878152602001908152602001600020600a0160003373ffffffffffffffffffffffffffffffffffffffff1673ffffffffffffffffffffffffffffffffffffffff16815260200190815260200160002060009054906101000a900460ff1615151561126657600080fd5b61126e6116a1565b6001600088815260200190815260200160002060040160a06040519081016040529081600082018054600181600116156101000203166002900480601f0160208091040260200160405190810160405280929190818152602001828054600181600116156101000203166002900480156113295780601f106112fe57610100808354040283529160200191611329565b820191906000526020600020905b81548152906001019060200180831161130c57829003601f168201915b50505050508152602001600182018054600181600116156101000203166002900480601f0160208091040260200160405190810160405280929190818152602001828054600181600116156101000203166002900480156113cb5780601f106113a0576101008083540402835291602001916113cb565b820191906000526020600020905b8154815290600101906020018083116113ae57829003601f168201915b50505050508152602001600282018054600181600116156101000203166002900480601f01602080910402602001604051908101604052809291908181526020018280546001816001161561010002031660029004801561146d5780601f106114425761010080835404028352916020019161146d565b820191906000526020600020905b81548152906001019060200180831161145057829003601f168201915b50505050508152602001600382018054600181600116156101000203166002900480601f01602080910402602001604051908101604052809291908181526020018280546001816001161561010002031660029004801561150f5780601f106114e45761010080835404028352916020019161150f565b820191906000526020600020905b8154815290600101906020018083116114f257829003601f168201915b50505050508152602001600482018054600181600116156101000203166002900480601f0160208091040260200160405190810160405280929190818152602001828054600181600116156101000203166002900480156115b15780601f10611586576101008083540402835291602001916115b1565b820191906000526020600020905b81548152906001019060200180831161159457829003601f168201915b505050505081525050905080600001518160200151826040015183606001518460800151849450839350829250819150809050955095509550955095505091939590929450565b828054600181600116156101000203166002900490600052602060002090601f016020900481019282601f1061163957805160ff1916838001178555611667565b82800160010185558215611667579182015b8281111561166657825182559160200191906001019061164b565b5b50905061167491906116d1565b5090565b608060405190810160405280600081526020016060815260200160008152602001600081525090565b60a06040519081016040528060608152602001606081526020016060815260200160608152602001606081525090565b6116f391905b808211156116ef5760008160009055506001016116d7565b5090565b9056fea165627a7a72305820ec23e8696d6809b416bee8bce756af3abe76cbb3ab7ac19c556cbfa6e3e96ea70029",
  "source": "pragma solidity ^0.5.0;\r\n\r\ncontract Quiz {\r\n mapping(address => uint) pay;\r\n   // Structure of a Question\r\n   // Each Question has four answer choices and only one correct anser choice\r\n   struct Question {\r\n      string question;\r\n      string correctAns;\r\n      string wrongAns1;\r\n      string wrongAns2;\r\n      string wrongAns3;\r\n   }\r\n\r\n   // Structure of a Quiz\r\n   struct QuizEvent {\r\n      uint id;\r\n      string name;\r\n      uint fee;\r\n      uint pool;\r\n      Question q1;\r\n      mapping(address => bool) hasPaid;\r\n      mapping(address => bool) attempts;\r\n   }\r\n\r\n   struct QuizDisplayable {\r\n      uint id;\r\n      string name;\r\n      uint fee;\r\n      uint pool;\r\n      mapping(address => bool) attempts;\r\n   }\r\n\r\n   mapping(uint => QuizEvent) quizzes;\r\n   mapping(uint => QuizDisplayable) quizDisp;\r\n\r\n   uint public numQuizzes;\r\n\r\n   event fetchquiz (uint indexed _quizId);   // get quiz questions\r\n   event quiztaken (uint indexed _quizId);   // quiz answers submitted\r\n\r\n   // Upon contract creation, initialize number of quizzes to 0 and create a new Quiz Event\r\n   constructor () public {\r\n      numQuizzes = 0;\r\n      makeQuiz(\"Test Quiz 1\", 1, 10, \"2+2=\", \"4\", \"3\", \"5\", \"2\");\r\n\r\n   }\r\n\r\n   // Increment number of quizzes\r\n   // Create a new QuizEvent and add it to the list of quizzes\r\n   function makeQuiz (string memory _name, uint _fee, uint _pool, string memory _question, string memory _ans1, string memory _ans2, string memory _ans3, string memory _ans4) public {\r\n      numQuizzes ++;\r\n      quizzes[numQuizzes] = QuizEvent(numQuizzes, _name, _fee, _pool, Question(_question, _ans1, _ans2, _ans3, _ans4));\r\n      quizDisp[numQuizzes] = QuizDisplayable(numQuizzes, _name, _fee, _pool);\r\n      quizzes[numQuizzes].attempts[msg.sender] = true;\r\n   }\r\n\r\n   function getQuizDisp(uint _quizId) view public returns(uint, string memory, uint, uint) {\r\n      QuizDisplayable memory temp = quizDisp[_quizId];\r\n      return (temp.id,temp.name,temp.fee,temp.pool);\r\n   }\r\n\r\n   // Requires that the quiz event exists\r\n   // Requires that the account trying to access the quiz information has not taken it before\r\n   // Once the account receives the quiz, add the account to the list of accounts that have\r\n   // attempted this quiz\r\n   function getQuiz (uint _quizId) view public returns (string memory, string memory, string memory, string memory, string memory) {\r\n      require(_quizId > 0 && _quizId <= numQuizzes);\r\n      require(!quizzes[_quizId].attempts[msg.sender]);\r\n      //quizzes[_quizId].attempts[msg.sender] = true;\r\n      //emit fetchquiz(_quizId);\r\n      Question memory q = quizzes[_quizId].q1;\r\n      return (q.question, q.correctAns, q.wrongAns1, q.wrongAns2, q.wrongAns3);\r\n   }\r\n\r\n   // Requires that the quiz exists\r\n   // Requires that the account has not attempted the quiz before\r\n   // Allows users to send money\r\n   // The contract's account balance will hold all of the ether for all QuizEvent pools\r\n   // Add fee to the pool of _quizId\r\n   //Require that amount paid is greater than equal to current amount in Pool\r\n   //Fetch the quiz for the user to access.\r\n   function payToPlay (uint _quizId) public payable {\r\n      require(_quizId > 0 && _quizId <= numQuizzes);\r\n      require(!quizzes[_quizId].attempts[msg.sender]);\r\n      userPay();\r\n      quizzes[_quizId].pool += msg.value;\r\n      require(msg.value >= quizzes[_quizId].fee);\r\n      emit fetchquiz(_quizId);\r\n   }\r\n\r\n   function getNum() public view returns (uint) {\r\n       return numQuizzes;\r\n   }\r\n\r\n   // Requires that the quiz exists\r\n   // Returns the current pool amount of the QuizEvent _quizId\r\n   function getPoolAmount (uint _quizId) view public returns (uint) {\r\n      require(_quizId > 0 && _quizId <= numQuizzes);\r\n      return quizzes[_quizId].pool;\r\n   }\r\n\r\n   function getCorr(uint _quizId) view public returns (string memory) {\r\n       return quizzes[_quizId].q1.correctAns;\r\n   }\r\n\r\n   // Requires that the quiz event exists\r\n   // Requires that the account has paid the fee to attempt the quiz\r\n   // Requires that the account has attempted the quiz\r\n   // Hashes the question's correct answer and the answer submitted by the account and compares\r\n   // the two Hashes\r\n   // If the two hashes are equal, then return true, otherwise false\r\n   function scoreAttempt (uint _quizId, string memory _ans) view public returns (bool) {\r\n      require(_quizId > 0 && _quizId <= numQuizzes);\r\n      require(quizzes[_quizId].hasPaid[msg.sender]);\r\n      require(quizzes[_quizId].attempts[msg.sender]);\r\n\r\n      return (keccak256(abi.encodePacked(_ans)) == keccak256(abi.encodePacked(quizzes[_quizId].q1.correctAns)));\r\n   }\r\n\r\n   // Requires that the account has paid the fee to attempt the quiz\r\n   // Requires that the account has attempted the quiz\r\n   // Transfer the amount of ether in the pool of _quizId to the winner\r\n   // Set the _quizId pool amount to 0\r\n   function awardLottery (uint _quizId, address payable _winner) private {\r\n      require(quizzes[_quizId].hasPaid[msg.sender]);\r\n      require(quizzes[_quizId].attempts[msg.sender]);\r\n      _winner.transfer(quizzes[_quizId].pool);\r\n      quizzes[_quizId].pool = 0;\r\n   }\r\n\r\n   function ifPlayed(uint _quizId)view private returns (string memory, string memory, string memory, string memory, string memory){\r\n    require(!quizzes[_quizId].attempts[msg.sender]); //requires that this is the user's first attempt\r\n    require(quizzes[_quizId].hasPaid[msg.sender]);\r\n    getQuiz(_quizId);\r\n\r\n   }\r\n   //Allows user to send money to our account\r\n   function userPay()payable public{\r\n       pay[msg.sender] = msg.value;\r\n   }\r\n}\r\n",
  "sourcePath": "C:/Users/micha/Documents/GSU/Spring 2019/Blockchain/Lottery/contracts/Quiz.sol",
  "compiler": {
    "name": "solc",
    "version": "0.5.0+commit.1d4f565a.Emscripten.clang"
  },
  "schemaVersion": "3.0.0",
  "updatedAt": "2019-04-14T18:28:45.164Z",
  "devdoc": {
    "methods": {}
  },
  "userdoc": {
    "methods": {}
  }
}