{
  "contractName": "Quiz",
  "abi": [
    {
      "constant": true,
      "inputs": [],
      "name": "numQuizzes",
      "outputs": [
        {
          "name": "",
          "type": "uint256"
        }
      ],
      "payable": false,
      "stateMutability": "view",
      "type": "function",
      "signature": "0x9a8fc0b8"
    },
    {
      "inputs": [],
      "payable": false,
      "stateMutability": "nonpayable",
      "type": "constructor",
      "signature": "constructor"
    },
    {
      "anonymous": false,
      "inputs": [
        {
          "indexed": true,
          "name": "_quizId",
          "type": "uint256"
        }
      ],
      "name": "fetchquiz",
      "type": "event",
      "signature": "0x74b91515a354f13aa884eed46cea33aa37533250f496f869b474fb7449099a2b"
    },
    {
      "anonymous": false,
      "inputs": [
        {
          "indexed": true,
          "name": "_quizId",
          "type": "uint256"
        }
      ],
      "name": "quiztaken",
      "type": "event",
      "signature": "0xe47940e15c49852a5ea2c5fbe9b1507d39b06a6504f4c2404f6e131ec222af0a"
    },
    {
      "constant": false,
      "inputs": [
        {
          "name": "_name",
          "type": "string"
        },
        {
          "name": "_fee",
          "type": "uint256"
        },
        {
          "name": "_pool",
          "type": "uint256"
        },
        {
          "name": "_question",
          "type": "string"
        },
        {
          "name": "_ans1",
          "type": "string"
        },
        {
          "name": "_ans2",
          "type": "string"
        },
        {
          "name": "_ans3",
          "type": "string"
        },
        {
          "name": "_ans4",
          "type": "string"
        }
      ],
      "name": "makeQuiz",
      "outputs": [],
      "payable": false,
      "stateMutability": "nonpayable",
      "type": "function",
      "signature": "0x0276266e"
    },
    {
      "constant": true,
      "inputs": [
        {
          "name": "_quizId",
          "type": "uint256"
        }
      ],
      "name": "getQuiz",
      "outputs": [
        {
          "name": "",
          "type": "string"
        },
        {
          "name": "",
          "type": "string"
        },
        {
          "name": "",
          "type": "string"
        },
        {
          "name": "",
          "type": "string"
        },
        {
          "name": "",
          "type": "string"
        }
      ],
      "payable": false,
      "stateMutability": "view",
      "type": "function",
      "signature": "0xa3f7e096"
    },
    {
      "constant": false,
      "inputs": [
        {
          "name": "_quizId",
          "type": "uint256"
        }
      ],
      "name": "payToPlay",
      "outputs": [],
      "payable": true,
      "stateMutability": "payable",
      "type": "function",
      "signature": "0x7b82578f"
    },
    {
      "constant": true,
      "inputs": [],
      "name": "getNum",
      "outputs": [
        {
          "name": "",
          "type": "uint256"
        }
      ],
      "payable": false,
      "stateMutability": "view",
      "type": "function",
      "signature": "0x67e0badb"
    },
    {
      "constant": true,
      "inputs": [
        {
          "name": "_quizId",
          "type": "uint256"
        }
      ],
      "name": "getPoolAmount",
      "outputs": [
        {
          "name": "",
          "type": "uint256"
        }
      ],
      "payable": false,
      "stateMutability": "view",
      "type": "function",
      "signature": "0x41af4858"
    },
    {
      "constant": true,
      "inputs": [
        {
          "name": "_quizId",
          "type": "uint256"
        }
      ],
      "name": "getCorr",
      "outputs": [
        {
          "name": "",
          "type": "string"
        }
      ],
      "payable": false,
      "stateMutability": "view",
      "type": "function",
      "signature": "0x99eb6950"
    },
    {
      "constant": true,
      "inputs": [
        {
          "name": "_quizId",
          "type": "uint256"
        },
        {
          "name": "_ans",
          "type": "string"
        }
      ],
      "name": "scoreAttempt",
      "outputs": [
        {
          "name": "",
          "type": "string"
        }
      ],
      "payable": false,
      "stateMutability": "view",
      "type": "function",
      "signature": "0x888c9663"
    }
  ],
  "bytecode": "0x60806040523480156200001157600080fd5b5060006001819055506200017b6040805190810160405280600b81526020017f54657374205175697a20310000000000000000000000000000000000000000008152506001600a6040805190810160405280600481526020017f322b323d000000000000000000000000000000000000000000000000000000008152506040805190810160405280600181526020017f34000000000000000000000000000000000000000000000000000000000000008152506040805190810160405280600181526020017f33000000000000000000000000000000000000000000000000000000000000008152506040805190810160405280600181526020017f35000000000000000000000000000000000000000000000000000000000000008152506040805190810160405280600181526020017f320000000000000000000000000000000000000000000000000000000000000081525062000181640100000000026401000000009004565b62000397565b60016000815480929190600101919050555060a060405190810160405280600154815260200189815260200188815260200187815260200160a06040519081016040528088815260200187815260200186815260200185815260200184815250815250600080600154815260200190815260200160002060008201518160000155602082015181600101908051906020019062000220929190620002e8565b50604082015181600201556060820151816003015560808201518160040160008201518160000190805190602001906200025c929190620002e8565b5060208201518160010190805190602001906200027b929190620002e8565b5060408201518160020190805190602001906200029a929190620002e8565b506060820151816003019080519060200190620002b9929190620002e8565b506080820151816004019080519060200190620002d8929190620002e8565b5050509050505050505050505050565b828054600181600116156101000203166002900490600052602060002090601f016020900481019282601f106200032b57805160ff19168380011785556200035c565b828001600101855582156200035c579182015b828111156200035b5782518255916020019190600101906200033e565b5b5090506200036b91906200036f565b5090565b6200039491905b808211156200039057600081600090555060010162000376565b5090565b90565b61137780620003a76000396000f3fe60806040526004361061008e576000357c0100000000000000000000000000000000000000000000000000000000900463ffffffff1680630276266e1461009357806341af48581461046357806367e0badb146104b25780637b82578f146104dd578063888c96631461050b57806399eb6950146106565780639a8fc0b81461070a578063a3f7e09614610735575b600080fd5b34801561009f57600080fd5b5061046160048036036101008110156100b757600080fd5b81019080803590602001906401000000008111156100d457600080fd5b8201836020820111156100e657600080fd5b8035906020019184600183028401116401000000008311171561010857600080fd5b91908080601f016020809104026020016040519081016040528093929190818152602001838380828437600081840152601f19601f82011690508083019250505050505050919291929080359060200190929190803590602001909291908035906020019064010000000081111561017f57600080fd5b82018360208201111561019157600080fd5b803590602001918460018302840111640100000000831117156101b357600080fd5b91908080601f016020809104026020016040519081016040528093929190818152602001838380828437600081840152601f19601f8201169050808301925050505050505091929192908035906020019064010000000081111561021657600080fd5b82018360208201111561022857600080fd5b8035906020019184600183028401116401000000008311171561024a57600080fd5b91908080601f016020809104026020016040519081016040528093929190818152602001838380828437600081840152601f19601f820116905080830192505050505050509192919290803590602001906401000000008111156102ad57600080fd5b8201836020820111156102bf57600080fd5b803590602001918460018302840111640100000000831117156102e157600080fd5b91908080601f016020809104026020016040519081016040528093929190818152602001838380828437600081840152601f19601f8201169050808301925050505050505091929192908035906020019064010000000081111561034457600080fd5b82018360208201111561035657600080fd5b8035906020019184600183028401116401000000008311171561037857600080fd5b91908080601f016020809104026020016040519081016040528093929190818152602001838380828437600081840152601f19601f820116905080830192505050505050509192919290803590602001906401000000008111156103db57600080fd5b8201836020820111156103ed57600080fd5b8035906020019184600183028401116401000000008311171561040f57600080fd5b91908080601f016020809104026020016040519081016040528093929190818152602001838380828437600081840152601f19601f820116905080830192505050505050509192919290505050610999565b005b34801561046f57600080fd5b5061049c6004803603602081101561048657600080fd5b8101908080359060200190929190505050610af4565b6040518082815260200191505060405180910390f35b3480156104be57600080fd5b506104c7610b2f565b6040518082815260200191505060405180910390f35b610509600480360360208110156104f357600080fd5b8101908080359060200190929190505050610b39565b005b34801561051757600080fd5b506105db6004803603604081101561052e57600080fd5b81019080803590602001909291908035906020019064010000000081111561055557600080fd5b82018360208201111561056757600080fd5b8035906020019184600183028401116401000000008311171561058957600080fd5b91908080601f016020809104026020016040519081016040528093929190818152602001838380828437600081840152601f19601f820116905080830192505050505050509192919290505050610be8565b6040518080602001828103825283818151815260200191508051906020019080838360005b8381101561061b578082015181840152602081019050610600565b50505050905090810190601f1680156106485780820380516001836020036101000a031916815260200191505b509250505060405180910390f35b34801561066257600080fd5b5061068f6004803603602081101561067957600080fd5b8101908080359060200190929190505050610dbe565b6040518080602001828103825283818151815260200191508051906020019080838360005b838110156106cf5780820151818401526020810190506106b4565b50505050905090810190601f1680156106fc5780820380516001836020036101000a031916815260200191505b509250505060405180910390f35b34801561071657600080fd5b5061071f610e78565b6040518082815260200191505060405180910390f35b34801561074157600080fd5b5061076e6004803603602081101561075857600080fd5b8101908080359060200190929190505050610e7e565b60405180806020018060200180602001806020018060200186810386528b818151815260200191508051906020019080838360005b838110156107be5780820151818401526020810190506107a3565b50505050905090810190601f1680156107eb5780820380516001836020036101000a031916815260200191505b5086810385528a818151815260200191508051906020019080838360005b83811015610824578082015181840152602081019050610809565b50505050905090810190601f1680156108515780820380516001836020036101000a031916815260200191505b50868103845289818151815260200191508051906020019080838360005b8381101561088a57808201518184015260208101905061086f565b50505050905090810190601f1680156108b75780820380516001836020036101000a031916815260200191505b50868103835288818151815260200191508051906020019080838360005b838110156108f05780820151818401526020810190506108d5565b50505050905090810190601f16801561091d5780820380516001836020036101000a031916815260200191505b50868103825287818151815260200191508051906020019080838360005b8381101561095657808201518184015260208101905061093b565b50505050905090810190601f1680156109835780820380516001836020036101000a031916815260200191505b509a505050505050505050505060405180910390f35b60016000815480929190600101919050555060a060405190810160405280600154815260200189815260200188815260200187815260200160a060405190810160405280888152602001878152602001868152602001858152602001848152508152506000806001548152602001908152602001600020600082015181600001556020820151816001019080519060200190610a369291906112a6565b5060408201518160020155606082015181600301556080820151816004016000820151816000019080519060200190610a709291906112a6565b506020820151816001019080519060200190610a8d9291906112a6565b506040820151816002019080519060200190610aaa9291906112a6565b506060820151816003019080519060200190610ac79291906112a6565b506080820151816004019080519060200190610ae49291906112a6565b5050509050505050505050505050565b60008082118015610b0757506001548211155b1515610b1257600080fd5b600080838152602001908152602001600020600301549050919050565b6000600154905090565b600081118015610b4b57506001548111155b1515610b5657600080fd5b600080828152602001908152602001600020600a0160003373ffffffffffffffffffffffffffffffffffffffff1673ffffffffffffffffffffffffffffffffffffffff16815260200190815260200160002060009054906101000a900460ff16151515610bc257600080fd5b346000808381526020019081526020016000206003016000828254019250508190555050565b6060600083118015610bfc57506001548311155b1515610c0757600080fd5b60008084815260200190815260200160002060090160003373ffffffffffffffffffffffffffffffffffffffff1673ffffffffffffffffffffffffffffffffffffffff16815260200190815260200160002060009054906101000a900460ff161515610c7257600080fd5b600080848152602001908152602001600020600a0160003373ffffffffffffffffffffffffffffffffffffffff1673ffffffffffffffffffffffffffffffffffffffff16815260200190815260200160002060009054906101000a900460ff161515610cdd57600080fd5b606082905082915050610db8565b8151811015610db5578181815181101515610d0257fe5b9060200101517f010000000000000000000000000000000000000000000000000000000000000090047f0100000000000000000000000000000000000000000000000000000000000000027effffffffffffffffffffffffffffffffffffffffffffffffffffffffffffff19168282815181101515610d7d57fe5b9060200101517f0100000000000000000000000000000000000000000000000000000000000000905050508080600101915050610ceb565b50505b92915050565b60606000808381526020019081526020016000206004016001018054600181600116156101000203166002900480601f016020809104026020016040519081016040528092919081815260200182805460018160011615610100020316600290048015610e6c5780601f10610e4157610100808354040283529160200191610e6c565b820191906000526020600020905b815481529060010190602001808311610e4f57829003601f168201915b50505050509050919050565b60015481565b6060806060806060600086118015610e9857506001548611155b1515610ea357600080fd5b600080878152602001908152602001600020600a0160003373ffffffffffffffffffffffffffffffffffffffff1673ffffffffffffffffffffffffffffffffffffffff16815260200190815260200160002060009054906101000a900460ff16151515610f0f57600080fd5b6000808781526020019081526020016000206004016000016000808881526020019081526020016000206004016001016000808981526020019081526020016000206004016002016000808a81526020019081526020016000206004016003016000808b8152602001908152602001600020600401600401848054600181600116156101000203166002900480601f01602080910402602001604051908101604052809291908181526020018280546001816001161561010002031660029004801561101c5780601f10610ff15761010080835404028352916020019161101c565b820191906000526020600020905b815481529060010190602001808311610fff57829003601f168201915b50505050509450838054600181600116156101000203166002900480601f0160208091040260200160405190810160405280929190818152602001828054600181600116156101000203166002900480156110b85780601f1061108d576101008083540402835291602001916110b8565b820191906000526020600020905b81548152906001019060200180831161109b57829003601f168201915b50505050509350828054600181600116156101000203166002900480601f0160208091040260200160405190810160405280929190818152602001828054600181600116156101000203166002900480156111545780601f1061112957610100808354040283529160200191611154565b820191906000526020600020905b81548152906001019060200180831161113757829003601f168201915b50505050509250818054600181600116156101000203166002900480601f0160208091040260200160405190810160405280929190818152602001828054600181600116156101000203166002900480156111f05780601f106111c5576101008083540402835291602001916111f0565b820191906000526020600020905b8154815290600101906020018083116111d357829003601f168201915b50505050509150808054600181600116156101000203166002900480601f01602080910402602001604051908101604052809291908181526020018280546001816001161561010002031660029004801561128c5780601f106112615761010080835404028352916020019161128c565b820191906000526020600020905b81548152906001019060200180831161126f57829003601f168201915b505050505090509450945094509450945091939590929450565b828054600181600116156101000203166002900490600052602060002090601f016020900481019282601f106112e757805160ff1916838001178555611315565b82800160010185558215611315579182015b828111156113145782518255916020019190600101906112f9565b5b5090506113229190611326565b5090565b61134891905b8082111561134457600081600090555060010161132c565b5090565b9056fea165627a7a72305820cf2067412f3867b8f5df33d06b6e34057c6021dfe23601dc7fa3bb56f2c5e5fb0029",
  "source": "pragma solidity ^0.5.0;\r\n\r\ncontract Quiz {\r\n\r\n   // Structure of a Question\r\n   // Each Question has four answer choices and only one correct anser choice\r\n   struct Question {\r\n      string question;\r\n      string correctAns;\r\n      string wrongAns1;\r\n      string wrongAns2;\r\n      string wrongAns3;\r\n   }\r\n\r\n   // Structure of a Quiz\r\n   struct QuizEvent {\r\n      uint id;\r\n      string name;\r\n      uint fee;\r\n      uint pool;\r\n      Question q1;\r\n      mapping(address => bool) hasPaid;   // Maybe change this to a dynamic array? ---------------\r\n      mapping(address => bool) attempts;  // Maybe change this to a dynamic array? ---------------\r\n   }\r\n\r\n   mapping(uint => QuizEvent) quizzes;\r\n\r\n   uint public numQuizzes;\r\n\r\n   event fetchquiz (uint indexed _quizId);   // get quiz questions\r\n   event quiztaken (uint indexed _quizId);   // quiz answers submitted\r\n\r\n   // Upon contract creation, initialize number of quizzes to 0 and create a new Quiz Event\r\n   constructor () public {\r\n      numQuizzes = 0;\r\n      makeQuiz(\"Test Quiz 1\", 1, 10, \"2+2=\", \"4\", \"3\", \"5\", \"2\");\r\n   }\r\n\r\n   // Increment number of quizzes\r\n   // Create a new QuizEvent and add it to the list of quizzes\r\n   function makeQuiz (string memory _name, uint _fee, uint _pool, string memory _question, string memory _ans1, string memory _ans2, string memory _ans3, string memory _ans4) public {\r\n      numQuizzes ++;\r\n      quizzes[numQuizzes] = QuizEvent(numQuizzes, _name, _fee, _pool, Question(_question, _ans1, _ans2, _ans3, _ans4));\r\n   }\r\n\r\n   // Requires that the quiz event exists\r\n   // Requires that the account trying to access the quiz information has not taken it before\r\n   // Once the account receives the quiz, add the account to the list of accounts that have\r\n   // attempted this quiz\r\n   function getQuiz (uint _quizId) view public returns (string memory, string memory, string memory, string memory, string memory) {\r\n      require(_quizId > 0 && _quizId <= numQuizzes);\r\n      require(!quizzes[_quizId].attempts[msg.sender]);\r\n     // quizzes[_quizId].attempts[msg.sender] = true;\r\n      //emit fetchquiz(_quizId);\r\n      return (quizzes[_quizId].q1.question, quizzes[_quizId].q1.correctAns, quizzes[_quizId].q1.wrongAns1, quizzes[_quizId].q1.wrongAns2, quizzes[_quizId].q1.wrongAns3);\r\n   }\r\n\r\n   // Requires that the quiz exists\r\n   // Requires that the account has not attempted the quiz before\r\n   // The contract's account balance will hold all of the ether for all QuizEvent pools\r\n   // Add fee to the pool of _quizId\r\n   function payToPlay (uint _quizId) public payable {\r\n      require(_quizId > 0 && _quizId <= numQuizzes);\r\n      require(!quizzes[_quizId].attempts[msg.sender]);\r\n      quizzes[_quizId].pool += msg.value;\r\n   }\r\n\r\n   function getNum() public view returns (uint) {\r\n       return numQuizzes;\r\n   }\r\n\r\n   // Requires that the quiz exists\r\n   // Returns the current pool amount of the QuizEvent _quizId\r\n   function getPoolAmount (uint _quizId) view public returns (uint) {\r\n      require(_quizId > 0 && _quizId <= numQuizzes);\r\n      return quizzes[_quizId].pool;\r\n   }\r\n\r\n   function getCorr(uint _quizId) view public returns (string memory) {\r\n       return quizzes[_quizId].q1.correctAns;\r\n   }\r\n\r\n   // Requires that the quiz event exists\r\n   // Requires that the account has paid the fee to attempt the quiz\r\n   // Requires that the account has attempted the quiz\r\n   // Hashes the question's correct answer and the answer submitted by the account and compares\r\n   // the two Hashes\r\n   // If the two hashes are equal, then return true, otherwise false\r\n   function scoreAttempt (uint _quizId, string memory _ans) view public returns (string memory) {\r\n      require(_quizId > 0 && _quizId <= numQuizzes);\r\n      require(quizzes[_quizId].hasPaid[msg.sender]);\r\n      require(quizzes[_quizId].attempts[msg.sender]);\r\n\r\n      string memory temp = _ans;\r\n\r\n      return _ans;\r\n\r\n      if (bytes(temp).length == bytes(temp).length) {\r\n          //return \"True\";\r\n      }\r\n\r\n      //return \"False\";\r\n\r\n      for (uint i = 0; i < bytes(temp).length; i++) {\r\n          if (bytes(temp)[i] != bytes(temp)[i]) {\r\n              //return false;\r\n          }\r\n      }\r\n      //return true;\r\n\r\n      //return (bytes(temp).length == bytes(temp).length);\r\n      //return (keccak256(abi.encodePacked(_ans)) == keccak256(abi.encodePacked(_ans)));\r\n   }\r\n\r\n   // Requires that the account has paid the fee to attempt the quiz\r\n   // Requires that the account has attempted the quiz\r\n   // Transfer the amount of ether in the pool of _quizId to the winner\r\n   // Set the _quizId pool amount to 0\r\n   function awardLottery (uint _quizId, address payable _winner) private {\r\n      require(quizzes[_quizId].hasPaid[msg.sender]);\r\n      require(quizzes[_quizId].attempts[msg.sender]);\r\n      _winner.transfer(quizzes[_quizId].pool);\r\n      quizzes[_quizId].pool = 0;\r\n   }\r\n}\r\n",
  "sourcePath": "C:/Users/micha/Documents/GSU/Spring 2019/Blockchain/Lottery/contracts/Quiz.sol",
  "compiler": {
    "name": "solc",
    "version": "0.5.0+commit.1d4f565a.Emscripten.clang"
  },
  "schemaVersion": "3.0.0",
  "updatedAt": "2019-04-12T22:44:16.539Z",
  "devdoc": {
    "methods": {}
  },
  "userdoc": {
    "methods": {}
  }
}