{
  "contractName": "Quiz",
  "abi": [
    {
      "constant": true,
      "inputs": [],
      "name": "numQuizzes",
      "outputs": [
        {
          "name": "",
          "type": "uint256"
        }
      ],
      "payable": false,
      "stateMutability": "view",
      "type": "function",
      "signature": "0x9a8fc0b8"
    },
    {
      "inputs": [],
      "payable": false,
      "stateMutability": "nonpayable",
      "type": "constructor",
      "signature": "constructor"
    },
    {
      "anonymous": false,
      "inputs": [
        {
          "indexed": true,
          "name": "_quizId",
          "type": "uint256"
        }
      ],
      "name": "fetchquiz",
      "type": "event",
      "signature": "0x74b91515a354f13aa884eed46cea33aa37533250f496f869b474fb7449099a2b"
    },
    {
      "anonymous": false,
      "inputs": [
        {
          "indexed": true,
          "name": "_quizId",
          "type": "uint256"
        }
      ],
      "name": "quiztaken",
      "type": "event",
      "signature": "0xe47940e15c49852a5ea2c5fbe9b1507d39b06a6504f4c2404f6e131ec222af0a"
    },
    {
      "constant": false,
      "inputs": [
        {
          "name": "_name",
          "type": "string"
        },
        {
          "name": "_fee",
          "type": "uint256"
        },
        {
          "name": "_pool",
          "type": "uint256"
        },
        {
          "name": "_question",
          "type": "string"
        },
        {
          "name": "_ans1",
          "type": "string"
        },
        {
          "name": "_ans2",
          "type": "string"
        },
        {
          "name": "_ans3",
          "type": "string"
        },
        {
          "name": "_ans4",
          "type": "string"
        }
      ],
      "name": "makeQuiz",
      "outputs": [],
      "payable": false,
      "stateMutability": "nonpayable",
      "type": "function",
      "signature": "0x0276266e"
    },
    {
      "constant": true,
      "inputs": [
        {
          "name": "_quizId",
          "type": "uint256"
        }
      ],
      "name": "getQuizDisp",
      "outputs": [
        {
          "name": "",
          "type": "uint256"
        },
        {
          "name": "",
          "type": "string"
        },
        {
          "name": "",
          "type": "uint256"
        },
        {
          "name": "",
          "type": "uint256"
        }
      ],
      "payable": false,
      "stateMutability": "view",
      "type": "function",
      "signature": "0x60907be8"
    },
    {
      "constant": false,
      "inputs": [
        {
          "name": "_quizId",
          "type": "uint256"
        }
      ],
      "name": "setAttempt",
      "outputs": [],
      "payable": false,
      "stateMutability": "nonpayable",
      "type": "function",
      "signature": "0xa0558879"
    },
    {
      "constant": true,
      "inputs": [
        {
          "name": "_quizId",
          "type": "uint256"
        }
      ],
      "name": "canSkip",
      "outputs": [
        {
          "name": "",
          "type": "bool"
        }
      ],
      "payable": false,
      "stateMutability": "view",
      "type": "function",
      "signature": "0xe04d5a8d"
    },
    {
      "constant": true,
      "inputs": [
        {
          "name": "_quizId",
          "type": "uint256"
        }
      ],
      "name": "getQuiz",
      "outputs": [
        {
          "name": "",
          "type": "string"
        },
        {
          "name": "",
          "type": "string"
        },
        {
          "name": "",
          "type": "string"
        },
        {
          "name": "",
          "type": "string"
        },
        {
          "name": "",
          "type": "string"
        }
      ],
      "payable": false,
      "stateMutability": "view",
      "type": "function",
      "signature": "0xa3f7e096"
    },
    {
      "constant": false,
      "inputs": [
        {
          "name": "_quizId",
          "type": "uint256"
        }
      ],
      "name": "payToPlay",
      "outputs": [],
      "payable": true,
      "stateMutability": "payable",
      "type": "function",
      "signature": "0x7b82578f"
    },
    {
      "constant": true,
      "inputs": [],
      "name": "getNum",
      "outputs": [
        {
          "name": "",
          "type": "uint256"
        }
      ],
      "payable": false,
      "stateMutability": "view",
      "type": "function",
      "signature": "0x67e0badb"
    },
    {
      "constant": true,
      "inputs": [
        {
          "name": "_quizId",
          "type": "uint256"
        }
      ],
      "name": "getPoolAmount",
      "outputs": [
        {
          "name": "",
          "type": "uint256"
        }
      ],
      "payable": false,
      "stateMutability": "view",
      "type": "function",
      "signature": "0x41af4858"
    },
    {
      "constant": true,
      "inputs": [
        {
          "name": "_quizId",
          "type": "uint256"
        },
        {
          "name": "_ans",
          "type": "string"
        }
      ],
      "name": "scoreAttempt",
      "outputs": [
        {
          "name": "",
          "type": "bool"
        }
      ],
      "payable": false,
      "stateMutability": "view",
      "type": "function",
      "signature": "0x888c9663"
    },
    {
      "constant": false,
      "inputs": [
        {
          "name": "_quizId",
          "type": "uint256"
        },
        {
          "name": "_winner",
          "type": "address"
        }
      ],
      "name": "awardLottery",
      "outputs": [],
      "payable": false,
      "stateMutability": "nonpayable",
      "type": "function",
      "signature": "0x4f3097e0"
    }
  ],
  "bytecode": "0x60806040523480156200001157600080fd5b5060006002819055506200017b6040805190810160405280600b81526020017f54657374205175697a20310000000000000000000000000000000000000000008152506001600a6040805190810160405280600481526020017f322b323d000000000000000000000000000000000000000000000000000000008152506040805190810160405280600181526020017f34000000000000000000000000000000000000000000000000000000000000008152506040805190810160405280600181526020017f33000000000000000000000000000000000000000000000000000000000000008152506040805190810160405280600181526020017f35000000000000000000000000000000000000000000000000000000000000008152506040805190810160405280600181526020017f320000000000000000000000000000000000000000000000000000000000000081525062000181640100000000026401000000009004565b6200047d565b60026000815480929190600101919050555060a060405190810160405280600254815260200189815260200188815260200187815260200160a06040519081016040528088815260200187815260200186815260200185815260200184815250815250600080600254815260200190815260200160002060008201518160000155602082015181600101908051906020019062000220929190620003ce565b50604082015181600201556060820151816003015560808201518160040160008201518160000190805190602001906200025c929190620003ce565b5060208201518160010190805190602001906200027b929190620003ce565b5060408201518160020190805190602001906200029a929190620003ce565b506060820151816003019080519060200190620002b9929190620003ce565b506080820151816004019080519060200190620002d8929190620003ce565b5050509050506080604051908101604052806002548152602001898152602001888152602001878152506001600060025481526020019081526020016000206000820151816000015560208201518160010190805190602001906200033f929190620003ce565b50604082015181600201556060820151816003015590505060016000806002548152602001908152602001600020600a0160003373ffffffffffffffffffffffffffffffffffffffff1673ffffffffffffffffffffffffffffffffffffffff16815260200190815260200160002060006101000a81548160ff0219169083151502179055505050505050505050565b828054600181600116156101000203166002900490600052602060002090601f016020900481019282601f106200041157805160ff191683800117855562000442565b8280016001018555821562000442579182015b828111156200044157825182559160200191906001019062000424565b5b50905062000451919062000455565b5090565b6200047a91905b80821115620004765760008160009055506001016200045c565b5090565b90565b61194a806200048d6000396000f3fe6080604052600436106100af576000357c0100000000000000000000000000000000000000000000000000000000900463ffffffff1680630276266e146100b457806341af4858146104845780634f3097e0146104d357806360907be81461052e57806367e0badb146105f75780637b82578f14610622578063888c9663146106505780639a8fc0b81461073a578063a055887914610765578063a3f7e096146107a0578063e04d5a8d14610a04575b600080fd5b3480156100c057600080fd5b5061048260048036036101008110156100d857600080fd5b81019080803590602001906401000000008111156100f557600080fd5b82018360208201111561010757600080fd5b8035906020019184600183028401116401000000008311171561012957600080fd5b91908080601f016020809104026020016040519081016040528093929190818152602001838380828437600081840152601f19601f8201169050808301925050505050505091929192908035906020019092919080359060200190929190803590602001906401000000008111156101a057600080fd5b8201836020820111156101b257600080fd5b803590602001918460018302840111640100000000831117156101d457600080fd5b91908080601f016020809104026020016040519081016040528093929190818152602001838380828437600081840152601f19601f8201169050808301925050505050505091929192908035906020019064010000000081111561023757600080fd5b82018360208201111561024957600080fd5b8035906020019184600183028401116401000000008311171561026b57600080fd5b91908080601f016020809104026020016040519081016040528093929190818152602001838380828437600081840152601f19601f820116905080830192505050505050509192919290803590602001906401000000008111156102ce57600080fd5b8201836020820111156102e057600080fd5b8035906020019184600183028401116401000000008311171561030257600080fd5b91908080601f016020809104026020016040519081016040528093929190818152602001838380828437600081840152601f19601f8201169050808301925050505050505091929192908035906020019064010000000081111561036557600080fd5b82018360208201111561037757600080fd5b8035906020019184600183028401116401000000008311171561039957600080fd5b91908080601f016020809104026020016040519081016040528093929190818152602001838380828437600081840152601f19601f820116905080830192505050505050509192919290803590602001906401000000008111156103fc57600080fd5b82018360208201111561040e57600080fd5b8035906020019184600183028401116401000000008311171561043057600080fd5b91908080601f016020809104026020016040519081016040528093929190818152602001838380828437600081840152601f19601f820116905080830192505050505050509192919290505050610a57565b005b34801561049057600080fd5b506104bd600480360360208110156104a757600080fd5b8101908080359060200190929190505050610c96565b6040518082815260200191505060405180910390f35b3480156104df57600080fd5b5061052c600480360360408110156104f657600080fd5b8101908080359060200190929190803573ffffffffffffffffffffffffffffffffffffffff169060200190929190505050610cd1565b005b34801561053a57600080fd5b506105676004803603602081101561055157600080fd5b8101908080359060200190929190505050610e25565b6040518085815260200180602001848152602001838152602001828103825285818151815260200191508051906020019080838360005b838110156105b957808201518184015260208101905061059e565b50505050905090810190601f1680156105e65780820380516001836020036101000a031916815260200191505b509550505050505060405180910390f35b34801561060357600080fd5b5061060c610f3c565b6040518082815260200191505060405180910390f35b61064e6004803603602081101561063857600080fd5b8101908080359060200190929190505050610f46565b005b34801561065c57600080fd5b506107206004803603604081101561067357600080fd5b81019080803590602001909291908035906020019064010000000081111561069a57600080fd5b8201836020820111156106ac57600080fd5b803590602001918460018302840111640100000000831117156106ce57600080fd5b91908080601f016020809104026020016040519081016040528093929190818152602001838380828437600081840152601f19601f8201169050808301925050505050505091929192905050506110b1565b604051808215151515815260200191505060405180910390f35b34801561074657600080fd5b5061074f6112b3565b6040518082815260200191505060405180910390f35b34801561077157600080fd5b5061079e6004803603602081101561078857600080fd5b81019080803590602001909291905050506112b9565b005b3480156107ac57600080fd5b506107d9600480360360208110156107c357600080fd5b8101908080359060200190929190505050611327565b60405180806020018060200180602001806020018060200186810386528b818151815260200191508051906020019080838360005b8381101561082957808201518184015260208101905061080e565b50505050905090810190601f1680156108565780820380516001836020036101000a031916815260200191505b5086810385528a818151815260200191508051906020019080838360005b8381101561088f578082015181840152602081019050610874565b50505050905090810190601f1680156108bc5780820380516001836020036101000a031916815260200191505b50868103845289818151815260200191508051906020019080838360005b838110156108f55780820151818401526020810190506108da565b50505050905090810190601f1680156109225780820380516001836020036101000a031916815260200191505b50868103835288818151815260200191508051906020019080838360005b8381101561095b578082015181840152602081019050610940565b50505050905090810190601f1680156109885780820380516001836020036101000a031916815260200191505b50868103825287818151815260200191508051906020019080838360005b838110156109c15780820151818401526020810190506109a6565b50505050905090810190601f1680156109ee5780820380516001836020036101000a031916815260200191505b509a505050505050505050505060405180910390f35b348015610a1057600080fd5b50610a3d60048036036020811015610a2757600080fd5b8101908080359060200190929190505050611749565b604051808215151515815260200191505060405180910390f35b60026000815480929190600101919050555060a060405190810160405280600254815260200189815260200188815260200187815260200160a060405190810160405280888152602001878152602001868152602001858152602001848152508152506000806002548152602001908152602001600020600082015181600001556020820151816001019080519060200190610af4929190611820565b5060408201518160020155606082015181600301556080820151816004016000820151816000019080519060200190610b2e929190611820565b506020820151816001019080519060200190610b4b929190611820565b506040820151816002019080519060200190610b68929190611820565b506060820151816003019080519060200190610b85929190611820565b506080820151816004019080519060200190610ba2929190611820565b505050905050608060405190810160405280600254815260200189815260200188815260200187815250600160006002548152602001908152602001600020600082015181600001556020820151816001019080519060200190610c07929190611820565b50604082015181600201556060820151816003015590505060016000806002548152602001908152602001600020600a0160003373ffffffffffffffffffffffffffffffffffffffff1673ffffffffffffffffffffffffffffffffffffffff16815260200190815260200160002060006101000a81548160ff0219169083151502179055505050505050505050565b60008082118015610ca957506002548211155b1515610cb457600080fd5b600080838152602001908152602001600020600301549050919050565b60008083815260200190815260200160002060090160008273ffffffffffffffffffffffffffffffffffffffff1673ffffffffffffffffffffffffffffffffffffffff16815260200190815260200160002060009054906101000a900460ff161515610d3c57600080fd5b600080838152602001908152602001600020600a0160008273ffffffffffffffffffffffffffffffffffffffff1673ffffffffffffffffffffffffffffffffffffffff16815260200190815260200160002060009054906101000a900460ff161515610da757600080fd5b8073ffffffffffffffffffffffffffffffffffffffff166108fc600160008086815260200190815260200160002060030154029081150290604051600060405180830381858888f19350505050158015610e05573d6000803e3d6000fd5b506000806000848152602001908152602001600020600301819055505050565b60006060600080610e346118a0565b600160008781526020019081526020016000206080604051908101604052908160008201548152602001600182018054600181600116156101000203166002900480601f016020809104026020016040519081016040528092919081815260200182805460018160011615610100020316600290048015610ef65780601f10610ecb57610100808354040283529160200191610ef6565b820191906000526020600020905b815481529060010190602001808311610ed957829003601f168201915b5050505050815260200160028201548152602001600382015481525050905080600001518160200151826040015183606001518292509450945094509450509193509193565b6000600254905090565b600081118015610f5857506002548111155b1515610f6357600080fd5b600080828152602001908152602001600020600a0160003373ffffffffffffffffffffffffffffffffffffffff1673ffffffffffffffffffffffffffffffffffffffff16815260200190815260200160002060009054906101000a900460ff16151515610fcf57600080fd5b600080828152602001908152602001600020600201543410151515610ff357600080fd5b3460008083815260200190815260200160002060030160008282540192505081905550600160008083815260200190815260200160002060090160003373ffffffffffffffffffffffffffffffffffffffff1673ffffffffffffffffffffffffffffffffffffffff16815260200190815260200160002060006101000a81548160ff021916908315150217905550807f74b91515a354f13aa884eed46cea33aa37533250f496f869b474fb7449099a2b60405160405180910390a250565b600080831180156110c457506002548311155b15156110cf57600080fd5b60008084815260200190815260200160002060090160003373ffffffffffffffffffffffffffffffffffffffff1673ffffffffffffffffffffffffffffffffffffffff16815260200190815260200160002060009054906101000a900460ff16151561113a57600080fd5b600080848152602001908152602001600020600a0160003373ffffffffffffffffffffffffffffffffffffffff1673ffffffffffffffffffffffffffffffffffffffff16815260200190815260200160002060009054906101000a900460ff1615156111a557600080fd5b600080848152602001908152602001600020600401600101604051602001808280546001816001161561010002031660029004801561121b5780601f106111f957610100808354040283529182019161121b565b820191906000526020600020905b815481529060010190602001808311611207575b505091505060405160208183030381529060405280519060200120826040516020018082805190602001908083835b60208310151561126f578051825260208201915060208101905060208303925061124a565b6001836020036101000a0380198251168184511680821785525050505050509050019150506040516020818303038152906040528051906020012014905092915050565b60025481565b6001600080838152602001908152602001600020600a0160003373ffffffffffffffffffffffffffffffffffffffff1673ffffffffffffffffffffffffffffffffffffffff16815260200190815260200160002060006101000a81548160ff02191690831515021790555050565b606080606080606060008611801561134157506002548611155b151561134c57600080fd5b600080878152602001908152602001600020600a0160003373ffffffffffffffffffffffffffffffffffffffff1673ffffffffffffffffffffffffffffffffffffffff16815260200190815260200160002060009054906101000a900460ff161515156113b857600080fd5b6113c06118c9565b60008088815260200190815260200160002060040160a06040519081016040529081600082018054600181600116156101000203166002900480601f01602080910402602001604051908101604052809291908181526020018280546001816001161561010002031660029004801561147a5780601f1061144f5761010080835404028352916020019161147a565b820191906000526020600020905b81548152906001019060200180831161145d57829003601f168201915b50505050508152602001600182018054600181600116156101000203166002900480601f01602080910402602001604051908101604052809291908181526020018280546001816001161561010002031660029004801561151c5780601f106114f15761010080835404028352916020019161151c565b820191906000526020600020905b8154815290600101906020018083116114ff57829003601f168201915b50505050508152602001600282018054600181600116156101000203166002900480601f0160208091040260200160405190810160405280929190818152602001828054600181600116156101000203166002900480156115be5780601f10611593576101008083540402835291602001916115be565b820191906000526020600020905b8154815290600101906020018083116115a157829003601f168201915b50505050508152602001600382018054600181600116156101000203166002900480601f0160208091040260200160405190810160405280929190818152602001828054600181600116156101000203166002900480156116605780601f1061163557610100808354040283529160200191611660565b820191906000526020600020905b81548152906001019060200180831161164357829003601f168201915b50505050508152602001600482018054600181600116156101000203166002900480601f0160208091040260200160405190810160405280929190818152602001828054600181600116156101000203166002900480156117025780601f106116d757610100808354040283529160200191611702565b820191906000526020600020905b8154815290600101906020018083116116e557829003601f168201915b505050505081525050905080600001518160200151826040015183606001518460800151849450839350829250819150809050955095509550955095505091939590929450565b60008060008084815260200190815260200160002060090160003373ffffffffffffffffffffffffffffffffffffffff1673ffffffffffffffffffffffffffffffffffffffff16815260200190815260200160002060009054906101000a900460ff1680156118155750600080848152602001908152602001600020600a0160003373ffffffffffffffffffffffffffffffffffffffff1673ffffffffffffffffffffffffffffffffffffffff16815260200190815260200160002060009054906101000a900460ff16155b905080915050919050565b828054600181600116156101000203166002900490600052602060002090601f016020900481019282601f1061186157805160ff191683800117855561188f565b8280016001018555821561188f579182015b8281111561188e578251825591602001919060010190611873565b5b50905061189c91906118f9565b5090565b608060405190810160405280600081526020016060815260200160008152602001600081525090565b60a06040519081016040528060608152602001606081526020016060815260200160608152602001606081525090565b61191b91905b808211156119175760008160009055506001016118ff565b5090565b9056fea165627a7a72305820ef0fa5df98949870368bdf97ab5980396d008d6c35da778dc1bfa467be7d27670029",
  "source": "pragma solidity ^0.5.0;\r\n\r\ncontract Quiz {\r\n   // Structure of a Question\r\n   // Each Question has four answer choices and only one correct anser choice\r\n   struct Question {\r\n      string question;\r\n      string correctAns;\r\n      string wrongAns1;\r\n      string wrongAns2;\r\n      string wrongAns3;\r\n   }\r\n\r\n   // Structure of a Quiz\r\n   struct QuizEvent {\r\n      uint id;\r\n      string name;\r\n      uint fee;\r\n      uint pool;\r\n      Question q1;\r\n      mapping(address => bool) hasPaid;\r\n      mapping(address => bool) attempts;\r\n   }\r\n\r\n   // Structure of a displayable quizzes\r\n   // Stores the same information as a quiz except for question information\r\n   struct QuizDisplayable {\r\n      uint id;\r\n      string name;\r\n      uint fee;\r\n      uint pool;\r\n      mapping(address => bool) attempts;\r\n   }\r\n\r\n   mapping(uint => QuizEvent) quizzes;\r\n   mapping(uint => QuizDisplayable) quizDisp;\r\n\r\n   uint public numQuizzes;\r\n\r\n   event fetchquiz (uint indexed _quizId);   // get quiz questions\r\n   event quiztaken (uint indexed _quizId);   // quiz answers submitted\r\n\r\n   // Upon contract creation, initialize number of quizzes to 0 and create a new Quiz Event\r\n   constructor () public {\r\n      numQuizzes = 0;\r\n      makeQuiz(\"Test Quiz 1\", 1, 10, \"2+2=\", \"4\", \"3\", \"5\", \"2\");\r\n   }\r\n\r\n   // Increment number of quizzes\r\n   // Create a new QuizEvent and add it to the list of quizzes\r\n   // Create a new QuizDisplayable and add it to the list of displayable quizzes\r\n   // Add the creator as a user who has attempted so the creator cannot attempt the quiz\r\n   function makeQuiz (string memory _name, uint _fee, uint _pool, string memory _question, string memory _ans1, string memory _ans2, string memory _ans3, string memory _ans4) public {\r\n      numQuizzes ++;\r\n      quizzes[numQuizzes] = QuizEvent(numQuizzes, _name, _fee, _pool, Question(_question, _ans1, _ans2, _ans3, _ans4));\r\n      quizDisp[numQuizzes] = QuizDisplayable(numQuizzes, _name, _fee, _pool);\r\n      quizzes[numQuizzes].attempts[msg.sender] = true;\r\n   }\r\n\r\n   // Returns quiz information for _quizId without returning the questions\r\n   function getQuizDisp(uint _quizId) view public returns(uint, string memory, uint, uint) {\r\n      QuizDisplayable memory temp = quizDisp[_quizId];\r\n      return (temp.id,temp.name,temp.fee,temp.pool);\r\n   }\r\n\r\n   // Adds the user to the list of users who have attemped this quiz\r\n   function setAttempt(uint _quizId) public {\r\n      quizzes[_quizId].attempts[msg.sender] = true;\r\n   }\r\n\r\n   // Checks to see if the user has paid but has not attempted\r\n   // This is used to bypass the front-end form to submit the fee\r\n   function canSkip(uint _quizId) view public returns (bool) {\r\n      bool skip = quizzes[_quizId].hasPaid[msg.sender] && !quizzes[_quizId].attempts[msg.sender];\r\n      return skip;\r\n   }\r\n\r\n   // Requires that the quiz event exists\r\n   // Requires that the account trying to access the quiz information has not taken it before\r\n   // Once the account receives the quiz, add the account to the list of accounts that have attempted this quiz\r\n   function getQuiz (uint _quizId) view public returns (string memory, string memory, string memory, string memory, string memory) {\r\n      require(_quizId > 0 && _quizId <= numQuizzes);\r\n      require(!quizzes[_quizId].attempts[msg.sender]);\r\n      Question memory q = quizzes[_quizId].q1;\r\n      return (q.question, q.correctAns, q.wrongAns1, q.wrongAns2, q.wrongAns3);\r\n   }\r\n\r\n   // Requires that the quiz exists\r\n   // Requires that the account has not attempted the quiz before\r\n   // Allows users to send money\r\n   // The contract's account balance will hold all of the ether for all QuizEvent pools\r\n   // Require that amount paid is greater than equal to current amount in Pool\r\n   // Add fee to the pool of _quizId\r\n   // Add the user to the mapping hasPaid to indicate that the user has paid the appropriate fee to take the quiz\r\n   // Fetch the quiz for the user to access.\r\n   function payToPlay (uint _quizId) public payable {\r\n      require(_quizId > 0 && _quizId <= numQuizzes);\r\n      require(!quizzes[_quizId].attempts[msg.sender]);\r\n      require(msg.value >= quizzes[_quizId].fee);\r\n      quizzes[_quizId].pool += msg.value;\r\n      quizzes[_quizId].hasPaid[msg.sender] = true;\r\n      emit fetchquiz(_quizId);\r\n   }\r\n\r\n   // Returns the number of QuizEvents\r\n   function getNum() public view returns (uint) {\r\n       return numQuizzes;\r\n   }\r\n\r\n   // Requires that the quiz exists\r\n   // Returns the current pool amount of the QuizEvent _quizId\r\n   function getPoolAmount (uint _quizId) view public returns (uint) {\r\n      require(_quizId > 0 && _quizId <= numQuizzes);\r\n      return quizzes[_quizId].pool;\r\n   }\r\n\r\n   // Requires that the quiz event exists\r\n   // Requires that the account has paid the fee to attempt the quiz\r\n   // Requires that the account has attempted the quiz\r\n   // Hashes the question's correct answer and the answer submitted by the account and compares the two Hashes\r\n   // If the two hashes are equal, then return true, otherwise false\r\n   function scoreAttempt (uint _quizId, string memory _ans) view public returns (bool) {\r\n      require(_quizId > 0 && _quizId <= numQuizzes);\r\n      require(quizzes[_quizId].hasPaid[msg.sender]);\r\n      require(quizzes[_quizId].attempts[msg.sender]);\r\n\r\n      return (keccak256(abi.encodePacked(_ans)) == keccak256(abi.encodePacked(quizzes[_quizId].q1.correctAns)));\r\n   }\r\n\r\n   // Requires that the account has paid the fee to attempt the quiz\r\n   // Requires that the account has attempted the quiz\r\n   // Transfer the amount of ether in the pool of _quizId to the winner\r\n   // Set the _quizId pool amount to 0\r\n   function awardLottery (uint _quizId, address payable _winner) public {\r\n      require(quizzes[_quizId].hasPaid[_winner]);\r\n      require(quizzes[_quizId].attempts[_winner]);\r\n      _winner.transfer(quizzes[_quizId].pool * 1 wei);\r\n      quizzes[_quizId].pool = 0;\r\n   }\r\n}\r\n",
  "sourcePath": "C:/Users/micha/Documents/GSU/Spring 2019/Blockchain/Lottery/contracts/Quiz.sol",
  "compiler": {
    "name": "solc",
    "version": "0.5.0+commit.1d4f565a.Emscripten.clang"
  },
  "schemaVersion": "3.0.0",
  "updatedAt": "2019-04-15T01:10:16.025Z",
  "devdoc": {
    "methods": {}
  },
  "userdoc": {
    "methods": {}
  }
}