{
  "contractName": "Quiz",
  "abi": [
    {
      "constant": true,
      "inputs": [],
      "name": "numQuizzes",
      "outputs": [
        {
          "name": "",
          "type": "uint256"
        }
      ],
      "payable": false,
      "stateMutability": "view",
      "type": "function"
    },
    {
      "inputs": [],
      "payable": false,
      "stateMutability": "nonpayable",
      "type": "constructor"
    },
    {
      "anonymous": false,
      "inputs": [
        {
          "indexed": true,
          "name": "_quizId",
          "type": "uint256"
        }
      ],
      "name": "fetchquiz",
      "type": "event"
    },
    {
      "anonymous": false,
      "inputs": [
        {
          "indexed": true,
          "name": "_quizId",
          "type": "uint256"
        }
      ],
      "name": "quiztaken",
      "type": "event"
    },
    {
      "constant": false,
      "inputs": [
        {
          "name": "_name",
          "type": "string"
        },
        {
          "name": "_fee",
          "type": "uint256"
        },
        {
          "name": "_pool",
          "type": "uint256"
        },
        {
          "name": "_question",
          "type": "string"
        },
        {
          "name": "_ans1",
          "type": "string"
        },
        {
          "name": "_ans2",
          "type": "string"
        },
        {
          "name": "_ans3",
          "type": "string"
        },
        {
          "name": "_ans4",
          "type": "string"
        }
      ],
      "name": "makeQuiz",
      "outputs": [],
      "payable": false,
      "stateMutability": "nonpayable",
      "type": "function"
    },
    {
      "constant": true,
      "inputs": [
        {
          "name": "_quizId",
          "type": "uint256"
        }
      ],
      "name": "getQuiz",
      "outputs": [
        {
          "name": "",
          "type": "string"
        },
        {
          "name": "",
          "type": "string"
        },
        {
          "name": "",
          "type": "string"
        },
        {
          "name": "",
          "type": "string"
        },
        {
          "name": "",
          "type": "string"
        }
      ],
      "payable": false,
      "stateMutability": "view",
      "type": "function"
    },
    {
      "constant": false,
      "inputs": [
        {
          "name": "_quizId",
          "type": "uint256"
        }
      ],
      "name": "payToPlay",
      "outputs": [],
      "payable": true,
      "stateMutability": "payable",
      "type": "function"
    },
    {
      "constant": true,
      "inputs": [],
      "name": "getNum",
      "outputs": [
        {
          "name": "",
          "type": "uint256"
        }
      ],
      "payable": false,
      "stateMutability": "view",
      "type": "function"
    },
    {
      "constant": true,
      "inputs": [
        {
          "name": "_quizId",
          "type": "uint256"
        }
      ],
      "name": "getPoolAmount",
      "outputs": [
        {
          "name": "",
          "type": "uint256"
        }
      ],
      "payable": false,
      "stateMutability": "view",
      "type": "function"
    },
    {
      "constant": true,
      "inputs": [
        {
          "name": "_quizId",
          "type": "uint256"
        }
      ],
      "name": "getCorr",
      "outputs": [
        {
          "name": "",
          "type": "string"
        }
      ],
      "payable": false,
      "stateMutability": "view",
      "type": "function"
    },
    {
      "constant": true,
      "inputs": [
        {
          "name": "_quizId",
          "type": "uint256"
        },
        {
          "name": "_ans",
          "type": "string"
        }
      ],
      "name": "scoreAttempt",
      "outputs": [
        {
          "name": "",
          "type": "bool"
        }
      ],
      "payable": false,
      "stateMutability": "view",
      "type": "function"
    },
    {
      "constant": false,
      "inputs": [],
      "name": "userPay",
      "outputs": [],
      "payable": true,
      "stateMutability": "payable",
      "type": "function"
    }
  ],
  "bytecode": "0x60806040523480156200001157600080fd5b5060006002819055506200017b6040805190810160405280600b81526020017f54657374205175697a20310000000000000000000000000000000000000000008152506001600a6040805190810160405280600481526020017f322b323d000000000000000000000000000000000000000000000000000000008152506040805190810160405280600181526020017f34000000000000000000000000000000000000000000000000000000000000008152506040805190810160405280600181526020017f33000000000000000000000000000000000000000000000000000000000000008152506040805190810160405280600181526020017f35000000000000000000000000000000000000000000000000000000000000008152506040805190810160405280600181526020017f320000000000000000000000000000000000000000000000000000000000000081525062000181640100000000026401000000009004565b62000405565b60026000815480929190600101919050555060a060405190810160405280600254815260200189815260200188815260200187815260200160a060405190810160405280888152602001878152602001868152602001858152602001848152508152506001600060025481526020019081526020016000206000820151816000015560208201518160010190805190602001906200022192919062000356565b50604082015181600201556060820151816003015560808201518160040160008201518160000190805190602001906200025d92919062000356565b5060208201518160010190805190602001906200027c92919062000356565b5060408201518160020190805190602001906200029b92919062000356565b506060820151816003019080519060200190620002ba92919062000356565b506080820151816004019080519060200190620002d992919062000356565b50505090505060018060006002548152602001908152602001600020600a0160003373ffffffffffffffffffffffffffffffffffffffff1673ffffffffffffffffffffffffffffffffffffffff16815260200190815260200160002060006101000a81548160ff0219169083151502179055505050505050505050565b828054600181600116156101000203166002900490600052602060002090601f016020900481019282601f106200039957805160ff1916838001178555620003ca565b82800160010185558215620003ca579182015b82811115620003c9578251825591602001919060010190620003ac565b5b509050620003d99190620003dd565b5090565b6200040291905b80821115620003fe576000816000905550600101620003e4565b5090565b90565b61147180620004156000396000f3fe608060405260043610610099576000357c0100000000000000000000000000000000000000000000000000000000900463ffffffff1680630276266e1461009e57806341af48581461046e57806367e0badb146104bd57806375f3349d146104e85780637b82578f146104f2578063888c96631461052057806399eb69501461060a5780639a8fc0b8146106be578063a3f7e096146106e9575b600080fd5b3480156100aa57600080fd5b5061046c60048036036101008110156100c257600080fd5b81019080803590602001906401000000008111156100df57600080fd5b8201836020820111156100f157600080fd5b8035906020019184600183028401116401000000008311171561011357600080fd5b91908080601f016020809104026020016040519081016040528093929190818152602001838380828437600081840152601f19601f82011690508083019250505050505050919291929080359060200190929190803590602001909291908035906020019064010000000081111561018a57600080fd5b82018360208201111561019c57600080fd5b803590602001918460018302840111640100000000831117156101be57600080fd5b91908080601f016020809104026020016040519081016040528093929190818152602001838380828437600081840152601f19601f8201169050808301925050505050505091929192908035906020019064010000000081111561022157600080fd5b82018360208201111561023357600080fd5b8035906020019184600183028401116401000000008311171561025557600080fd5b91908080601f016020809104026020016040519081016040528093929190818152602001838380828437600081840152601f19601f820116905080830192505050505050509192919290803590602001906401000000008111156102b857600080fd5b8201836020820111156102ca57600080fd5b803590602001918460018302840111640100000000831117156102ec57600080fd5b91908080601f016020809104026020016040519081016040528093929190818152602001838380828437600081840152601f19601f8201169050808301925050505050505091929192908035906020019064010000000081111561034f57600080fd5b82018360208201111561036157600080fd5b8035906020019184600183028401116401000000008311171561038357600080fd5b91908080601f016020809104026020016040519081016040528093929190818152602001838380828437600081840152601f19601f820116905080830192505050505050509192919290803590602001906401000000008111156103e657600080fd5b8201836020820111156103f857600080fd5b8035906020019184600183028401116401000000008311171561041a57600080fd5b91908080601f016020809104026020016040519081016040528093929190818152602001838380828437600081840152601f19601f82011690508083019250505050505050919291929050505061094d565b005b34801561047a57600080fd5b506104a76004803603602081101561049157600080fd5b8101908080359060200190929190505050610b16565b6040518082815260200191505060405180910390f35b3480156104c957600080fd5b506104d2610b52565b6040518082815260200191505060405180910390f35b6104f0610b5c565b005b61051e6004803603602081101561050857600080fd5b8101908080359060200190929190505050610ba1565b005b34801561052c57600080fd5b506105f06004803603604081101561054357600080fd5b81019080803590602001909291908035906020019064010000000081111561056a57600080fd5b82018360208201111561057c57600080fd5b8035906020019184600183028401116401000000008311171561059e57600080fd5b91908080601f016020809104026020016040519081016040528093929190818152602001838380828437600081840152601f19601f820116905080830192505050505050509192919290505050610cac565b604051808215151515815260200191505060405180910390f35b34801561061657600080fd5b506106436004803603602081101561062d57600080fd5b8101908080359060200190929190505050610eb1565b6040518080602001828103825283818151815260200191508051906020019080838360005b83811015610683578082015181840152602081019050610668565b50505050905090810190601f1680156106b05780820380516001836020036101000a031916815260200191505b509250505060405180910390f35b3480156106ca57600080fd5b506106d3610f6c565b6040518082815260200191505060405180910390f35b3480156106f557600080fd5b506107226004803603602081101561070c57600080fd5b8101908080359060200190929190505050610f72565b60405180806020018060200180602001806020018060200186810386528b818151815260200191508051906020019080838360005b83811015610772578082015181840152602081019050610757565b50505050905090810190601f16801561079f5780820380516001836020036101000a031916815260200191505b5086810385528a818151815260200191508051906020019080838360005b838110156107d85780820151818401526020810190506107bd565b50505050905090810190601f1680156108055780820380516001836020036101000a031916815260200191505b50868103845289818151815260200191508051906020019080838360005b8381101561083e578082015181840152602081019050610823565b50505050905090810190601f16801561086b5780820380516001836020036101000a031916815260200191505b50868103835288818151815260200191508051906020019080838360005b838110156108a4578082015181840152602081019050610889565b50505050905090810190601f1680156108d15780820380516001836020036101000a031916815260200191505b50868103825287818151815260200191508051906020019080838360005b8381101561090a5780820151818401526020810190506108ef565b50505050905090810190601f1680156109375780820380516001836020036101000a031916815260200191505b509a505050505050505050505060405180910390f35b60026000815480929190600101919050555060a060405190810160405280600254815260200189815260200188815260200187815260200160a060405190810160405280888152602001878152602001868152602001858152602001848152508152506001600060025481526020019081526020016000206000820151816000015560208201518160010190805190602001906109eb9291906113a0565b5060408201518160020155606082015181600301556080820151816004016000820151816000019080519060200190610a259291906113a0565b506020820151816001019080519060200190610a429291906113a0565b506040820151816002019080519060200190610a5f9291906113a0565b506060820151816003019080519060200190610a7c9291906113a0565b506080820151816004019080519060200190610a999291906113a0565b50505090505060018060006002548152602001908152602001600020600a0160003373ffffffffffffffffffffffffffffffffffffffff1673ffffffffffffffffffffffffffffffffffffffff16815260200190815260200160002060006101000a81548160ff0219169083151502179055505050505050505050565b60008082118015610b2957506002548211155b1515610b3457600080fd5b60016000838152602001908152602001600020600301549050919050565b6000600254905090565b346000803373ffffffffffffffffffffffffffffffffffffffff1673ffffffffffffffffffffffffffffffffffffffff16815260200190815260200160002081905550565b600081118015610bb357506002548111155b1515610bbe57600080fd5b60016000828152602001908152602001600020600a0160003373ffffffffffffffffffffffffffffffffffffffff1673ffffffffffffffffffffffffffffffffffffffff16815260200190815260200160002060009054906101000a900460ff16151515610c2b57600080fd5b610c33610b5c565b34600160008381526020019081526020016000206003016000828254019250508190555060016000828152602001908152602001600020600201543410151515610c7c57600080fd5b807f74b91515a354f13aa884eed46cea33aa37533250f496f869b474fb7449099a2b60405160405180910390a250565b60008083118015610cbf57506002548311155b1515610cca57600080fd5b6001600084815260200190815260200160002060090160003373ffffffffffffffffffffffffffffffffffffffff1673ffffffffffffffffffffffffffffffffffffffff16815260200190815260200160002060009054906101000a900460ff161515610d3657600080fd5b60016000848152602001908152602001600020600a0160003373ffffffffffffffffffffffffffffffffffffffff1673ffffffffffffffffffffffffffffffffffffffff16815260200190815260200160002060009054906101000a900460ff161515610da257600080fd5b600160008481526020019081526020016000206004016001016040516020018082805460018160011615610100020316600290048015610e195780601f10610df7576101008083540402835291820191610e19565b820191906000526020600020905b815481529060010190602001808311610e05575b505091505060405160208183030381529060405280519060200120826040516020018082805190602001908083835b602083101515610e6d5780518252602082019150602081019050602083039250610e48565b6001836020036101000a0380198251168184511680821785525050505050509050019150506040516020818303038152906040528051906020012014905092915050565b6060600160008381526020019081526020016000206004016001018054600181600116156101000203166002900480601f016020809104026020016040519081016040528092919081815260200182805460018160011615610100020316600290048015610f605780601f10610f3557610100808354040283529160200191610f60565b820191906000526020600020905b815481529060010190602001808311610f4357829003601f168201915b50505050509050919050565b60025481565b6060806060806060600086118015610f8c57506002548611155b1515610f9757600080fd5b60016000878152602001908152602001600020600a0160003373ffffffffffffffffffffffffffffffffffffffff1673ffffffffffffffffffffffffffffffffffffffff16815260200190815260200160002060009054906101000a900460ff1615151561100457600080fd5b600160008781526020019081526020016000206004016000016001600088815260200190815260200160002060040160010160016000898152602001908152602001600020600401600201600160008a8152602001908152602001600020600401600301600160008b8152602001908152602001600020600401600401848054600181600116156101000203166002900480601f0160208091040260200160405190810160405280929190818152602001828054600181600116156101000203166002900480156111165780601f106110eb57610100808354040283529160200191611116565b820191906000526020600020905b8154815290600101906020018083116110f957829003601f168201915b50505050509450838054600181600116156101000203166002900480601f0160208091040260200160405190810160405280929190818152602001828054600181600116156101000203166002900480156111b25780601f10611187576101008083540402835291602001916111b2565b820191906000526020600020905b81548152906001019060200180831161119557829003601f168201915b50505050509350828054600181600116156101000203166002900480601f01602080910402602001604051908101604052809291908181526020018280546001816001161561010002031660029004801561124e5780601f106112235761010080835404028352916020019161124e565b820191906000526020600020905b81548152906001019060200180831161123157829003601f168201915b50505050509250818054600181600116156101000203166002900480601f0160208091040260200160405190810160405280929190818152602001828054600181600116156101000203166002900480156112ea5780601f106112bf576101008083540402835291602001916112ea565b820191906000526020600020905b8154815290600101906020018083116112cd57829003601f168201915b50505050509150808054600181600116156101000203166002900480601f0160208091040260200160405190810160405280929190818152602001828054600181600116156101000203166002900480156113865780601f1061135b57610100808354040283529160200191611386565b820191906000526020600020905b81548152906001019060200180831161136957829003601f168201915b505050505090509450945094509450945091939590929450565b828054600181600116156101000203166002900490600052602060002090601f016020900481019282601f106113e157805160ff191683800117855561140f565b8280016001018555821561140f579182015b8281111561140e5782518255916020019190600101906113f3565b5b50905061141c9190611420565b5090565b61144291905b8082111561143e576000816000905550600101611426565b5090565b9056fea165627a7a72305820c46ab307a22b92ac1b78c58060dc170193651c473fcd83507642ad914fd155840029",
  "source": "pragma solidity ^0.5.0;\r\n\r\ncontract Quiz {\r\n mapping(address => uint) pay;\r\n   // Structure of a Question\r\n   // Each Question has four answer choices and only one correct anser choice\r\n   struct Question {\r\n      string question;\r\n      string correctAns;\r\n      string wrongAns1;\r\n      string wrongAns2;\r\n      string wrongAns3;\r\n   }\r\n\r\n   // Structure of a Quiz\r\n   struct QuizEvent {\r\n      uint id;\r\n      string name;\r\n      uint fee;\r\n      uint pool;\r\n      Question q1;\r\n      mapping(address => bool) hasPaid;\r\n      mapping(address => bool) attempts;\r\n\r\n\r\n   }\r\n\r\n   mapping(uint => QuizEvent) quizzes;\r\n\r\n   uint public numQuizzes;\r\n\r\n   event fetchquiz (uint indexed _quizId);   // get quiz questions\r\n   event quiztaken (uint indexed _quizId);   // quiz answers submitted\r\n\r\n   // Upon contract creation, initialize number of quizzes to 0 and create a new Quiz Event\r\n   constructor () public {\r\n      numQuizzes = 0;\r\n      makeQuiz(\"Test Quiz 1\", 1, 10, \"2+2=\", \"4\", \"3\", \"5\", \"2\");\r\n\r\n   }\r\n\r\n   // Increment number of quizzes\r\n   // Create a new QuizEvent and add it to the list of quizzes\r\n   function makeQuiz (string memory _name, uint _fee, uint _pool, string memory _question, string memory _ans1, string memory _ans2, string memory _ans3, string memory _ans4) public {\r\n      numQuizzes ++;\r\n      quizzes[numQuizzes] = QuizEvent(numQuizzes, _name, _fee, _pool, Question(_question, _ans1, _ans2, _ans3, _ans4));\r\n      quizzes[numQuizzes].attempts[msg.sender] = true;\r\n   }\r\n\r\n   // Requires that the quiz event exists\r\n   // Requires that the account trying to access the quiz information has not taken it before\r\n   // Once the account receives the quiz, add the account to the list of accounts that have\r\n   // attempted this quiz\r\n   function getQuiz (uint _quizId) view public returns (string memory, string memory, string memory, string memory, string memory) {\r\n      require(_quizId > 0 && _quizId <= numQuizzes);\r\n      require(!quizzes[_quizId].attempts[msg.sender]);\r\n     // quizzes[_quizId].attempts[msg.sender] = true;\r\n      //emit fetchquiz(_quizId);\r\n      return (quizzes[_quizId].q1.question, quizzes[_quizId].q1.correctAns, quizzes[_quizId].q1.wrongAns1, quizzes[_quizId].q1.wrongAns2, quizzes[_quizId].q1.wrongAns3);\r\n   }\r\n\r\n   // Requires that the quiz exists\r\n   // Requires that the account has not attempted the quiz before\r\n   // Allows users to send money\r\n   // The contract's account balance will hold all of the ether for all QuizEvent pools\r\n   // Add fee to the pool of _quizId\r\n   //Require that amount paid is greater than equal to current amount in Pool\r\n   //Fetch the quiz for the user to access.\r\n   function payToPlay (uint _quizId) public payable {\r\n      require(_quizId > 0 && _quizId <= numQuizzes);\r\n      require(!quizzes[_quizId].attempts[msg.sender]);\r\n      userPay();\r\n      quizzes[_quizId].pool += msg.value;\r\n      require(msg.value >= quizzes[_quizId].fee);\r\n      emit fetchquiz(_quizId);\r\n   }\r\n\r\n   function getNum() public view returns (uint) {\r\n       return numQuizzes;\r\n   }\r\n\r\n   // Requires that the quiz exists\r\n   // Returns the current pool amount of the QuizEvent _quizId\r\n   function getPoolAmount (uint _quizId) view public returns (uint) {\r\n      require(_quizId > 0 && _quizId <= numQuizzes);\r\n      return quizzes[_quizId].pool;\r\n   }\r\n\r\n   function getCorr(uint _quizId) view public returns (string memory) {\r\n       return quizzes[_quizId].q1.correctAns;\r\n   }\r\n\r\n   // Requires that the quiz event exists\r\n   // Requires that the account has paid the fee to attempt the quiz\r\n   // Requires that the account has attempted the quiz\r\n   // Hashes the question's correct answer and the answer submitted by the account and compares\r\n   // the two Hashes\r\n   // If the two hashes are equal, then return true, otherwise false\r\n   function scoreAttempt (uint _quizId, string memory _ans) view public returns (bool) {\r\n      require(_quizId > 0 && _quizId <= numQuizzes);\r\n      require(quizzes[_quizId].hasPaid[msg.sender]);\r\n      require(quizzes[_quizId].attempts[msg.sender]);\r\n\r\n      return (keccak256(abi.encodePacked(_ans)) == keccak256(abi.encodePacked(quizzes[_quizId].q1.correctAns)));\r\n   }\r\n\r\n   // Requires that the account has paid the fee to attempt the quiz\r\n   // Requires that the account has attempted the quiz\r\n   // Transfer the amount of ether in the pool of _quizId to the winner\r\n   // Set the _quizId pool amount to 0\r\n   function awardLottery (uint _quizId, address payable _winner) private {\r\n      require(quizzes[_quizId].hasPaid[msg.sender]);\r\n      require(quizzes[_quizId].attempts[msg.sender]);\r\n      _winner.transfer(quizzes[_quizId].pool);\r\n      quizzes[_quizId].pool = 0;\r\n   }\r\n\r\n   function ifPlayed(uint _quizId)view private returns (string memory, string memory, string memory, string memory, string memory){\r\n    require(!quizzes[_quizId].attempts[msg.sender]); //requires that this is the user's first attempt\r\n    require(quizzes[_quizId].hasPaid[msg.sender]);\r\n    getQuiz(_quizId);\r\n\r\n   }\r\n   //Allows user to send money to our account\r\n   function userPay()payable public{\r\n       pay[msg.sender] = msg.value;\r\n   }\r\n}\r\n",
  "sourcePath": "C:/Users/micha/Documents/GSU/Spring 2019/Blockchain/Lottery/contracts/Quiz.sol",
  "compiler": {
    "name": "solc",
    "version": "0.5.0+commit.1d4f565a.Emscripten.clang"
  },
  "schemaVersion": "3.0.0",
  "updatedAt": "2019-04-13T21:41:27.213Z",
  "devdoc": {
    "methods": {}
  },
  "userdoc": {
    "methods": {}
  }
}