{
  "contractName": "Quiz",
  "abi": [
    {
      "constant": true,
      "inputs": [],
      "name": "numQuizzes",
      "outputs": [
        {
          "name": "",
          "type": "uint256"
        }
      ],
      "payable": false,
      "stateMutability": "view",
      "type": "function",
      "signature": "0x9a8fc0b8"
    },
    {
      "inputs": [],
      "payable": false,
      "stateMutability": "nonpayable",
      "type": "constructor",
      "signature": "constructor"
    },
    {
      "anonymous": false,
      "inputs": [
        {
          "indexed": true,
          "name": "_quizId",
          "type": "uint256"
        }
      ],
      "name": "fetchquiz",
      "type": "event",
      "signature": "0x74b91515a354f13aa884eed46cea33aa37533250f496f869b474fb7449099a2b"
    },
    {
      "anonymous": false,
      "inputs": [
        {
          "indexed": true,
          "name": "_quizId",
          "type": "uint256"
        }
      ],
      "name": "quiztaken",
      "type": "event",
      "signature": "0xe47940e15c49852a5ea2c5fbe9b1507d39b06a6504f4c2404f6e131ec222af0a"
    },
    {
      "constant": false,
      "inputs": [
        {
          "name": "_name",
          "type": "string"
        },
        {
          "name": "_fee",
          "type": "uint256"
        },
        {
          "name": "_pool",
          "type": "uint256"
        },
        {
          "name": "_question",
          "type": "string"
        },
        {
          "name": "_ans1",
          "type": "string"
        },
        {
          "name": "_ans2",
          "type": "string"
        },
        {
          "name": "_ans3",
          "type": "string"
        },
        {
          "name": "_ans4",
          "type": "string"
        }
      ],
      "name": "makeQuiz",
      "outputs": [],
      "payable": false,
      "stateMutability": "nonpayable",
      "type": "function",
      "signature": "0x0276266e"
    },
    {
      "constant": true,
      "inputs": [
        {
          "name": "_quizId",
          "type": "uint256"
        }
      ],
      "name": "getQuizDisp",
      "outputs": [
        {
          "name": "",
          "type": "uint256"
        },
        {
          "name": "",
          "type": "string"
        },
        {
          "name": "",
          "type": "uint256"
        },
        {
          "name": "",
          "type": "uint256"
        }
      ],
      "payable": false,
      "stateMutability": "view",
      "type": "function",
      "signature": "0x60907be8"
    },
    {
      "constant": false,
      "inputs": [
        {
          "name": "_quizId",
          "type": "uint256"
        }
      ],
      "name": "setAttempt",
      "outputs": [],
      "payable": false,
      "stateMutability": "nonpayable",
      "type": "function",
      "signature": "0xa0558879"
    },
    {
      "constant": true,
      "inputs": [
        {
          "name": "_quizId",
          "type": "uint256"
        }
      ],
      "name": "canSkip",
      "outputs": [
        {
          "name": "",
          "type": "bool"
        }
      ],
      "payable": false,
      "stateMutability": "view",
      "type": "function",
      "signature": "0xe04d5a8d"
    },
    {
      "constant": true,
      "inputs": [
        {
          "name": "_quizId",
          "type": "uint256"
        }
      ],
      "name": "getQuiz",
      "outputs": [
        {
          "name": "",
          "type": "string"
        },
        {
          "name": "",
          "type": "string"
        },
        {
          "name": "",
          "type": "string"
        },
        {
          "name": "",
          "type": "string"
        },
        {
          "name": "",
          "type": "string"
        }
      ],
      "payable": false,
      "stateMutability": "view",
      "type": "function",
      "signature": "0xa3f7e096"
    },
    {
      "constant": false,
      "inputs": [
        {
          "name": "_quizId",
          "type": "uint256"
        }
      ],
      "name": "payToPlay",
      "outputs": [],
      "payable": true,
      "stateMutability": "payable",
      "type": "function",
      "signature": "0x7b82578f"
    },
    {
      "constant": true,
      "inputs": [],
      "name": "getNum",
      "outputs": [
        {
          "name": "",
          "type": "uint256"
        }
      ],
      "payable": false,
      "stateMutability": "view",
      "type": "function",
      "signature": "0x67e0badb"
    },
    {
      "constant": true,
      "inputs": [
        {
          "name": "_quizId",
          "type": "uint256"
        }
      ],
      "name": "getPoolAmount",
      "outputs": [
        {
          "name": "",
          "type": "uint256"
        }
      ],
      "payable": false,
      "stateMutability": "view",
      "type": "function",
      "signature": "0x41af4858"
    },
    {
      "constant": true,
      "inputs": [
        {
          "name": "_quizId",
          "type": "uint256"
        }
      ],
      "name": "getCorr",
      "outputs": [
        {
          "name": "",
          "type": "string"
        }
      ],
      "payable": false,
      "stateMutability": "view",
      "type": "function",
      "signature": "0x99eb6950"
    },
    {
      "constant": true,
      "inputs": [
        {
          "name": "_quizId",
          "type": "uint256"
        },
        {
          "name": "_ans",
          "type": "string"
        }
      ],
      "name": "scoreAttempt",
      "outputs": [
        {
          "name": "",
          "type": "bool"
        }
      ],
      "payable": false,
      "stateMutability": "view",
      "type": "function",
      "signature": "0x888c9663"
    }
  ],
  "bytecode": "0x60806040523480156200001157600080fd5b5060006002819055506200017b6040805190810160405280600b81526020017f54657374205175697a20310000000000000000000000000000000000000000008152506001600a6040805190810160405280600481526020017f322b323d000000000000000000000000000000000000000000000000000000008152506040805190810160405280600181526020017f34000000000000000000000000000000000000000000000000000000000000008152506040805190810160405280600181526020017f33000000000000000000000000000000000000000000000000000000000000008152506040805190810160405280600181526020017f35000000000000000000000000000000000000000000000000000000000000008152506040805190810160405280600181526020017f320000000000000000000000000000000000000000000000000000000000000081525062000181640100000000026401000000009004565b6200047d565b60026000815480929190600101919050555060a060405190810160405280600254815260200189815260200188815260200187815260200160a06040519081016040528088815260200187815260200186815260200185815260200184815250815250600080600254815260200190815260200160002060008201518160000155602082015181600101908051906020019062000220929190620003ce565b50604082015181600201556060820151816003015560808201518160040160008201518160000190805190602001906200025c929190620003ce565b5060208201518160010190805190602001906200027b929190620003ce565b5060408201518160020190805190602001906200029a929190620003ce565b506060820151816003019080519060200190620002b9929190620003ce565b506080820151816004019080519060200190620002d8929190620003ce565b5050509050506080604051908101604052806002548152602001898152602001888152602001878152506001600060025481526020019081526020016000206000820151816000015560208201518160010190805190602001906200033f929190620003ce565b50604082015181600201556060820151816003015590505060016000806002548152602001908152602001600020600a0160003373ffffffffffffffffffffffffffffffffffffffff1673ffffffffffffffffffffffffffffffffffffffff16815260200190815260200160002060006101000a81548160ff0219169083151502179055505050505050505050565b828054600181600116156101000203166002900490600052602060002090601f016020900481019282601f106200041157805160ff191683800117855562000442565b8280016001018555821562000442579182015b828111156200044157825182559160200191906001019062000424565b5b50905062000451919062000455565b5090565b6200047a91905b80821115620004765760008160009055506001016200045c565b5090565b90565b611909806200048d6000396000f3fe6080604052600436106100af576000357c0100000000000000000000000000000000000000000000000000000000900463ffffffff1680630276266e146100b457806341af48581461048457806360907be8146104d357806367e0badb1461059c5780637b82578f146105c7578063888c9663146105f557806399eb6950146106df5780639a8fc0b814610793578063a0558879146107be578063a3f7e096146107f9578063e04d5a8d14610a5d575b600080fd5b3480156100c057600080fd5b5061048260048036036101008110156100d857600080fd5b81019080803590602001906401000000008111156100f557600080fd5b82018360208201111561010757600080fd5b8035906020019184600183028401116401000000008311171561012957600080fd5b91908080601f016020809104026020016040519081016040528093929190818152602001838380828437600081840152601f19601f8201169050808301925050505050505091929192908035906020019092919080359060200190929190803590602001906401000000008111156101a057600080fd5b8201836020820111156101b257600080fd5b803590602001918460018302840111640100000000831117156101d457600080fd5b91908080601f016020809104026020016040519081016040528093929190818152602001838380828437600081840152601f19601f8201169050808301925050505050505091929192908035906020019064010000000081111561023757600080fd5b82018360208201111561024957600080fd5b8035906020019184600183028401116401000000008311171561026b57600080fd5b91908080601f016020809104026020016040519081016040528093929190818152602001838380828437600081840152601f19601f820116905080830192505050505050509192919290803590602001906401000000008111156102ce57600080fd5b8201836020820111156102e057600080fd5b8035906020019184600183028401116401000000008311171561030257600080fd5b91908080601f016020809104026020016040519081016040528093929190818152602001838380828437600081840152601f19601f8201169050808301925050505050505091929192908035906020019064010000000081111561036557600080fd5b82018360208201111561037757600080fd5b8035906020019184600183028401116401000000008311171561039957600080fd5b91908080601f016020809104026020016040519081016040528093929190818152602001838380828437600081840152601f19601f820116905080830192505050505050509192919290803590602001906401000000008111156103fc57600080fd5b82018360208201111561040e57600080fd5b8035906020019184600183028401116401000000008311171561043057600080fd5b91908080601f016020809104026020016040519081016040528093929190818152602001838380828437600081840152601f19601f820116905080830192505050505050509192919290505050610ab0565b005b34801561049057600080fd5b506104bd600480360360208110156104a757600080fd5b8101908080359060200190929190505050610cef565b6040518082815260200191505060405180910390f35b3480156104df57600080fd5b5061050c600480360360208110156104f657600080fd5b8101908080359060200190929190505050610d2a565b6040518085815260200180602001848152602001838152602001828103825285818151815260200191508051906020019080838360005b8381101561055e578082015181840152602081019050610543565b50505050905090810190601f16801561058b5780820380516001836020036101000a031916815260200191505b509550505050505060405180910390f35b3480156105a857600080fd5b506105b1610e41565b6040518082815260200191505060405180910390f35b6105f3600480360360208110156105dd57600080fd5b8101908080359060200190929190505050610e4b565b005b34801561060157600080fd5b506106c56004803603604081101561061857600080fd5b81019080803590602001909291908035906020019064010000000081111561063f57600080fd5b82018360208201111561065157600080fd5b8035906020019184600183028401116401000000008311171561067357600080fd5b91908080601f016020809104026020016040519081016040528093929190818152602001838380828437600081840152601f19601f820116905080830192505050505050509192919290505050610fb6565b604051808215151515815260200191505060405180910390f35b3480156106eb57600080fd5b506107186004803603602081101561070257600080fd5b81019080803590602001909291905050506111b8565b6040518080602001828103825283818151815260200191508051906020019080838360005b8381101561075857808201518184015260208101905061073d565b50505050905090810190601f1680156107855780820380516001836020036101000a031916815260200191505b509250505060405180910390f35b34801561079f57600080fd5b506107a8611272565b6040518082815260200191505060405180910390f35b3480156107ca57600080fd5b506107f7600480360360208110156107e157600080fd5b8101908080359060200190929190505050611278565b005b34801561080557600080fd5b506108326004803603602081101561081c57600080fd5b81019080803590602001909291905050506112e6565b60405180806020018060200180602001806020018060200186810386528b818151815260200191508051906020019080838360005b83811015610882578082015181840152602081019050610867565b50505050905090810190601f1680156108af5780820380516001836020036101000a031916815260200191505b5086810385528a818151815260200191508051906020019080838360005b838110156108e85780820151818401526020810190506108cd565b50505050905090810190601f1680156109155780820380516001836020036101000a031916815260200191505b50868103845289818151815260200191508051906020019080838360005b8381101561094e578082015181840152602081019050610933565b50505050905090810190601f16801561097b5780820380516001836020036101000a031916815260200191505b50868103835288818151815260200191508051906020019080838360005b838110156109b4578082015181840152602081019050610999565b50505050905090810190601f1680156109e15780820380516001836020036101000a031916815260200191505b50868103825287818151815260200191508051906020019080838360005b83811015610a1a5780820151818401526020810190506109ff565b50505050905090810190601f168015610a475780820380516001836020036101000a031916815260200191505b509a505050505050505050505060405180910390f35b348015610a6957600080fd5b50610a9660048036036020811015610a8057600080fd5b8101908080359060200190929190505050611708565b604051808215151515815260200191505060405180910390f35b60026000815480929190600101919050555060a060405190810160405280600254815260200189815260200188815260200187815260200160a060405190810160405280888152602001878152602001868152602001858152602001848152508152506000806002548152602001908152602001600020600082015181600001556020820151816001019080519060200190610b4d9291906117df565b5060408201518160020155606082015181600301556080820151816004016000820151816000019080519060200190610b879291906117df565b506020820151816001019080519060200190610ba49291906117df565b506040820151816002019080519060200190610bc19291906117df565b506060820151816003019080519060200190610bde9291906117df565b506080820151816004019080519060200190610bfb9291906117df565b505050905050608060405190810160405280600254815260200189815260200188815260200187815250600160006002548152602001908152602001600020600082015181600001556020820151816001019080519060200190610c609291906117df565b50604082015181600201556060820151816003015590505060016000806002548152602001908152602001600020600a0160003373ffffffffffffffffffffffffffffffffffffffff1673ffffffffffffffffffffffffffffffffffffffff16815260200190815260200160002060006101000a81548160ff0219169083151502179055505050505050505050565b60008082118015610d0257506002548211155b1515610d0d57600080fd5b600080838152602001908152602001600020600301549050919050565b60006060600080610d3961185f565b600160008781526020019081526020016000206080604051908101604052908160008201548152602001600182018054600181600116156101000203166002900480601f016020809104026020016040519081016040528092919081815260200182805460018160011615610100020316600290048015610dfb5780601f10610dd057610100808354040283529160200191610dfb565b820191906000526020600020905b815481529060010190602001808311610dde57829003601f168201915b5050505050815260200160028201548152602001600382015481525050905080600001518160200151826040015183606001518292509450945094509450509193509193565b6000600254905090565b600081118015610e5d57506002548111155b1515610e6857600080fd5b600080828152602001908152602001600020600a0160003373ffffffffffffffffffffffffffffffffffffffff1673ffffffffffffffffffffffffffffffffffffffff16815260200190815260200160002060009054906101000a900460ff16151515610ed457600080fd5b600080828152602001908152602001600020600201543410151515610ef857600080fd5b3460008083815260200190815260200160002060030160008282540192505081905550600160008083815260200190815260200160002060090160003373ffffffffffffffffffffffffffffffffffffffff1673ffffffffffffffffffffffffffffffffffffffff16815260200190815260200160002060006101000a81548160ff021916908315150217905550807f74b91515a354f13aa884eed46cea33aa37533250f496f869b474fb7449099a2b60405160405180910390a250565b60008083118015610fc957506002548311155b1515610fd457600080fd5b60008084815260200190815260200160002060090160003373ffffffffffffffffffffffffffffffffffffffff1673ffffffffffffffffffffffffffffffffffffffff16815260200190815260200160002060009054906101000a900460ff16151561103f57600080fd5b600080848152602001908152602001600020600a0160003373ffffffffffffffffffffffffffffffffffffffff1673ffffffffffffffffffffffffffffffffffffffff16815260200190815260200160002060009054906101000a900460ff1615156110aa57600080fd5b60008084815260200190815260200160002060040160010160405160200180828054600181600116156101000203166002900480156111205780601f106110fe576101008083540402835291820191611120565b820191906000526020600020905b81548152906001019060200180831161110c575b505091505060405160208183030381529060405280519060200120826040516020018082805190602001908083835b602083101515611174578051825260208201915060208101905060208303925061114f565b6001836020036101000a0380198251168184511680821785525050505050509050019150506040516020818303038152906040528051906020012014905092915050565b60606000808381526020019081526020016000206004016001018054600181600116156101000203166002900480601f0160208091040260200160405190810160405280929190818152602001828054600181600116156101000203166002900480156112665780601f1061123b57610100808354040283529160200191611266565b820191906000526020600020905b81548152906001019060200180831161124957829003601f168201915b50505050509050919050565b60025481565b6001600080838152602001908152602001600020600a0160003373ffffffffffffffffffffffffffffffffffffffff1673ffffffffffffffffffffffffffffffffffffffff16815260200190815260200160002060006101000a81548160ff02191690831515021790555050565b606080606080606060008611801561130057506002548611155b151561130b57600080fd5b600080878152602001908152602001600020600a0160003373ffffffffffffffffffffffffffffffffffffffff1673ffffffffffffffffffffffffffffffffffffffff16815260200190815260200160002060009054906101000a900460ff1615151561137757600080fd5b61137f611888565b60008088815260200190815260200160002060040160a06040519081016040529081600082018054600181600116156101000203166002900480601f0160208091040260200160405190810160405280929190818152602001828054600181600116156101000203166002900480156114395780601f1061140e57610100808354040283529160200191611439565b820191906000526020600020905b81548152906001019060200180831161141c57829003601f168201915b50505050508152602001600182018054600181600116156101000203166002900480601f0160208091040260200160405190810160405280929190818152602001828054600181600116156101000203166002900480156114db5780601f106114b0576101008083540402835291602001916114db565b820191906000526020600020905b8154815290600101906020018083116114be57829003601f168201915b50505050508152602001600282018054600181600116156101000203166002900480601f01602080910402602001604051908101604052809291908181526020018280546001816001161561010002031660029004801561157d5780601f106115525761010080835404028352916020019161157d565b820191906000526020600020905b81548152906001019060200180831161156057829003601f168201915b50505050508152602001600382018054600181600116156101000203166002900480601f01602080910402602001604051908101604052809291908181526020018280546001816001161561010002031660029004801561161f5780601f106115f45761010080835404028352916020019161161f565b820191906000526020600020905b81548152906001019060200180831161160257829003601f168201915b50505050508152602001600482018054600181600116156101000203166002900480601f0160208091040260200160405190810160405280929190818152602001828054600181600116156101000203166002900480156116c15780601f10611696576101008083540402835291602001916116c1565b820191906000526020600020905b8154815290600101906020018083116116a457829003601f168201915b505050505081525050905080600001518160200151826040015183606001518460800151849450839350829250819150809050955095509550955095505091939590929450565b60008060008084815260200190815260200160002060090160003373ffffffffffffffffffffffffffffffffffffffff1673ffffffffffffffffffffffffffffffffffffffff16815260200190815260200160002060009054906101000a900460ff1680156117d45750600080848152602001908152602001600020600a0160003373ffffffffffffffffffffffffffffffffffffffff1673ffffffffffffffffffffffffffffffffffffffff16815260200190815260200160002060009054906101000a900460ff16155b905080915050919050565b828054600181600116156101000203166002900490600052602060002090601f016020900481019282601f1061182057805160ff191683800117855561184e565b8280016001018555821561184e579182015b8281111561184d578251825591602001919060010190611832565b5b50905061185b91906118b8565b5090565b608060405190810160405280600081526020016060815260200160008152602001600081525090565b60a06040519081016040528060608152602001606081526020016060815260200160608152602001606081525090565b6118da91905b808211156118d65760008160009055506001016118be565b5090565b9056fea165627a7a723058205d9fc26b4c73128b7a509eed912fa378cf30f5bf58301a6cd2fe18538a9378030029",
  "source": "pragma solidity ^0.5.0;\r\n\r\ncontract Quiz {\r\n   // Structure of a Question\r\n   // Each Question has four answer choices and only one correct anser choice\r\n   struct Question {\r\n      string question;\r\n      string correctAns;\r\n      string wrongAns1;\r\n      string wrongAns2;\r\n      string wrongAns3;\r\n   }\r\n\r\n   // Structure of a Quiz\r\n   struct QuizEvent {\r\n      uint id;\r\n      string name;\r\n      uint fee;\r\n      uint pool;\r\n      Question q1;\r\n      mapping(address => bool) hasPaid;\r\n      mapping(address => bool) attempts;\r\n   }\r\n\r\n   struct QuizDisplayable {\r\n      uint id;\r\n      string name;\r\n      uint fee;\r\n      uint pool;\r\n      mapping(address => bool) attempts;\r\n   }\r\n\r\n   mapping(uint => QuizEvent) quizzes;\r\n   mapping(uint => QuizDisplayable) quizDisp;\r\n\r\n   uint public numQuizzes;\r\n\r\n   event fetchquiz (uint indexed _quizId);   // get quiz questions\r\n   event quiztaken (uint indexed _quizId);   // quiz answers submitted\r\n\r\n   // Upon contract creation, initialize number of quizzes to 0 and create a new Quiz Event\r\n   constructor () public {\r\n      numQuizzes = 0;\r\n      makeQuiz(\"Test Quiz 1\", 1, 10, \"2+2=\", \"4\", \"3\", \"5\", \"2\");\r\n\r\n   }\r\n\r\n   // Increment number of quizzes\r\n   // Create a new QuizEvent and add it to the list of quizzes\r\n   function makeQuiz (string memory _name, uint _fee, uint _pool, string memory _question, string memory _ans1, string memory _ans2, string memory _ans3, string memory _ans4) public {\r\n      numQuizzes ++;\r\n      quizzes[numQuizzes] = QuizEvent(numQuizzes, _name, _fee, _pool, Question(_question, _ans1, _ans2, _ans3, _ans4));\r\n      quizDisp[numQuizzes] = QuizDisplayable(numQuizzes, _name, _fee, _pool);\r\n      quizzes[numQuizzes].attempts[msg.sender] = true;\r\n   }\r\n\r\n   function getQuizDisp(uint _quizId) view public returns(uint, string memory, uint, uint) {\r\n      QuizDisplayable memory temp = quizDisp[_quizId];\r\n      return (temp.id,temp.name,temp.fee,temp.pool);\r\n   }\r\n\r\n    function setAttempt(uint _quizId) public {\r\n        quizzes[_quizId].attempts[msg.sender] = true;\r\n    }\r\n\r\n    function canSkip(uint _quizId) view public returns (bool) {\r\n        bool skip = quizzes[_quizId].hasPaid[msg.sender] && !quizzes[_quizId].attempts[msg.sender];\r\n        return skip;\r\n    }\r\n\r\n   // Requires that the quiz event exists\r\n   // Requires that the account trying to access the quiz information has not taken it before\r\n   // Once the account receives the quiz, add the account to the list of accounts that have\r\n   // attempted this quiz\r\n   function getQuiz (uint _quizId) view public returns (string memory, string memory, string memory, string memory, string memory) {\r\n      require(_quizId > 0 && _quizId <= numQuizzes);\r\n      require(!quizzes[_quizId].attempts[msg.sender]);\r\n      Question memory q = quizzes[_quizId].q1;\r\n      return (q.question, q.correctAns, q.wrongAns1, q.wrongAns2, q.wrongAns3);\r\n   }\r\n\r\n   // Requires that the quiz exists\r\n   // Requires that the account has not attempted the quiz before\r\n   // Allows users to send money\r\n   // The contract's account balance will hold all of the ether for all QuizEvent pools\r\n   // Add fee to the pool of _quizId\r\n   //Require that amount paid is greater than equal to current amount in Pool\r\n   //Fetch the quiz for the user to access.\r\n   function payToPlay (uint _quizId) public payable {\r\n      require(_quizId > 0 && _quizId <= numQuizzes);\r\n      require(!quizzes[_quizId].attempts[msg.sender]);\r\n      require(msg.value >= quizzes[_quizId].fee);\r\n      quizzes[_quizId].pool += msg.value;\r\n      quizzes[_quizId].hasPaid[msg.sender] = true;\r\n      emit fetchquiz(_quizId);\r\n   }\r\n\r\n   function getNum() public view returns (uint) {\r\n       return numQuizzes;\r\n   }\r\n\r\n   // Requires that the quiz exists\r\n   // Returns the current pool amount of the QuizEvent _quizId\r\n   function getPoolAmount (uint _quizId) view public returns (uint) {\r\n      require(_quizId > 0 && _quizId <= numQuizzes);\r\n      return quizzes[_quizId].pool;\r\n   }\r\n\r\n   function getCorr(uint _quizId) view public returns (string memory) {\r\n       return quizzes[_quizId].q1.correctAns;\r\n   }\r\n\r\n   // Requires that the quiz event exists\r\n   // Requires that the account has paid the fee to attempt the quiz\r\n   // Requires that the account has attempted the quiz\r\n   // Hashes the question's correct answer and the answer submitted by the account and compares\r\n   // the two Hashes\r\n   // If the two hashes are equal, then return true, otherwise false\r\n   function scoreAttempt (uint _quizId, string memory _ans) view public returns (bool) {\r\n      require(_quizId > 0 && _quizId <= numQuizzes);\r\n      require(quizzes[_quizId].hasPaid[msg.sender]);\r\n      require(quizzes[_quizId].attempts[msg.sender]);\r\n\r\n      return (keccak256(abi.encodePacked(_ans)) == keccak256(abi.encodePacked(quizzes[_quizId].q1.correctAns)));\r\n   }\r\n\r\n   // Requires that the account has paid the fee to attempt the quiz\r\n   // Requires that the account has attempted the quiz\r\n   // Transfer the amount of ether in the pool of _quizId to the winner\r\n   // Set the _quizId pool amount to 0\r\n   function awardLottery (uint _quizId, address payable _winner) private {\r\n      require(quizzes[_quizId].hasPaid[msg.sender]);\r\n      require(quizzes[_quizId].attempts[msg.sender]);\r\n      _winner.transfer(quizzes[_quizId].pool);\r\n      quizzes[_quizId].pool = 0;\r\n   }\r\n}\r\n",
  "sourcePath": "C:/Users/micha/Documents/GSU/Spring 2019/Blockchain/Lottery/contracts/Quiz.sol",
  "compiler": {
    "name": "solc",
    "version": "0.5.0+commit.1d4f565a.Emscripten.clang"
  },
  "schemaVersion": "3.0.0",
  "updatedAt": "2019-04-14T22:58:33.877Z",
  "devdoc": {
    "methods": {}
  },
  "userdoc": {
    "methods": {}
  }
}