{
  "contractName": "Quiz",
  "abi": [
    {
      "constant": true,
      "inputs": [],
      "name": "numQuizzes",
      "outputs": [
        {
          "name": "",
          "type": "uint256"
        }
      ],
      "payable": false,
      "stateMutability": "view",
      "type": "function"
    },
    {
      "inputs": [],
      "payable": false,
      "stateMutability": "nonpayable",
      "type": "constructor"
    },
    {
      "anonymous": false,
      "inputs": [
        {
          "indexed": true,
          "name": "_quizId",
          "type": "uint256"
        }
      ],
      "name": "fetchquiz",
      "type": "event"
    },
    {
      "anonymous": false,
      "inputs": [
        {
          "indexed": true,
          "name": "_quizId",
          "type": "uint256"
        }
      ],
      "name": "quiztaken",
      "type": "event"
    },
    {
      "constant": false,
      "inputs": [
        {
          "name": "_quizId",
          "type": "uint256"
        }
      ],
      "name": "getQuiz",
      "outputs": [],
      "payable": false,
      "stateMutability": "nonpayable",
      "type": "function"
    },
    {
      "constant": false,
      "inputs": [
        {
          "name": "_quizId",
          "type": "uint256"
        },
        {
          "name": "_ans",
          "type": "string"
        }
      ],
      "name": "scoreAttempt",
      "outputs": [
        {
          "name": "",
          "type": "bool"
        }
      ],
      "payable": false,
      "stateMutability": "nonpayable",
      "type": "function"
    }
  ],
  "bytecode": "0x608060405234801561001057600080fd5b5061016e6040805190810160405280600b81526020017f54657374205175697a2031000000000000000000000000000000000000000000815250600a6040805190810160405280600481526020017f322b323d000000000000000000000000000000000000000000000000000000008152506040805190810160405280600181526020017f34000000000000000000000000000000000000000000000000000000000000008152506040805190810160405280600181526020017f33000000000000000000000000000000000000000000000000000000000000008152506040805190810160405280600181526020017f35000000000000000000000000000000000000000000000000000000000000008152506040805190810160405280600181526020017f3200000000000000000000000000000000000000000000000000000000000000815250610173640100000000026401000000009004565b610362565b600160008154809291906001019190505550608060405190810160405280600154815260200188815260200187815260200160a06040519081016040528088815260200187815260200186815260200185815260200184815250815250600080600154815260200190815260200160002060008201518160000155602082015181600101908051906020019061020a9291906102bd565b5060408201518160020155606082015181600301600082015181600001908051906020019061023a9291906102bd565b5060208201518160010190805190602001906102579291906102bd565b5060408201518160020190805190602001906102749291906102bd565b5060608201518160030190805190602001906102919291906102bd565b5060808201518160040190805190602001906102ae9291906102bd565b50505090505050505050505050565b828054600181600116156101000203166002900490600052602060002090601f016020900481019282601f106102fe57805160ff191683800117855561032c565b8280016001018555821561032c579182015b8281111561032b578251825591602001919060010190610310565b5b509050610339919061033d565b5090565b61035f91905b8082111561035b576000816000905550600101610343565b5090565b90565b6104ac806103716000396000f3fe608060405260043610610057576000357c0100000000000000000000000000000000000000000000000000000000900463ffffffff168063888c96631461005c5780639a8fc0b814610146578063a3f7e09614610171575b600080fd5b34801561006857600080fd5b5061012c6004803603604081101561007f57600080fd5b8101908080359060200190929190803590602001906401000000008111156100a657600080fd5b8201836020820111156100b857600080fd5b803590602001918460018302840111640100000000831117156100da57600080fd5b91908080601f016020809104026020016040519081016040528093929190818152602001838380828437600081840152601f19601f8201169050808301925050505050505091929192905050506101ac565b604051808215151515815260200191505060405180910390f35b34801561015257600080fd5b5061015b610356565b6040518082815260200191505060405180910390f35b34801561017d57600080fd5b506101aa6004803603602081101561019457600080fd5b810190808035906020019092919050505061035c565b005b600080600084815260200190815260200160002060080160003373ffffffffffffffffffffffffffffffffffffffff1673ffffffffffffffffffffffffffffffffffffffff16815260200190815260200160002060009054906101000a900460ff1615151561021a57600080fd5b60008311801561022c57506001548311155b151561023757600080fd5b816040516020018082805190602001908083835b602083101515610270578051825260208201915060208101905060208303925061024b565b6001836020036101000a0380198251168184511680821785525050505050509050019150506040516020818303038152906040528051906020012060008085815260200190815260200160002060030160010160405160200180828054600181600116156101000203166002900480156103215780601f106102ff576101008083540402835291820191610321565b820191906000526020600020905b81548152906001019060200180831161030d575b505091505060405160208183030381529060405280519060200120141561034b5760019050610350565b600090505b92915050565b60015481565b60008082815260200190815260200160002060080160003373ffffffffffffffffffffffffffffffffffffffff1673ffffffffffffffffffffffffffffffffffffffff16815260200190815260200160002060009054906101000a900460ff161515156103c857600080fd5b6000811180156103da57506001548111155b15156103e557600080fd5b600160008083815260200190815260200160002060080160003373ffffffffffffffffffffffffffffffffffffffff1673ffffffffffffffffffffffffffffffffffffffff16815260200190815260200160002060006101000a81548160ff021916908315150217905550807f74b91515a354f13aa884eed46cea33aa37533250f496f869b474fb7449099a2b60405160405180910390a25056fea165627a7a72305820dec3b4e7a4d3510ca93be4e70f9b341df308245dc0544f61bd229d117a25df7d0029",
  "source": "pragma solidity ^0.5.0;\r\n\r\ncontract Quiz {\r\n\r\n   struct Question {\r\n      string question;\r\n      string correctAns;\r\n      string wrongAns1;\r\n      string wrongAns2;\r\n      string wrongAns3;\r\n   }\r\n\r\n   struct QuizEvent {\r\n      uint id;\r\n      string name;\r\n      uint pool;\r\n      Question q1;\r\n      mapping(address => bool) attempts;\r\n   }\r\n\r\n   mapping(uint => QuizEvent) quizzes;\r\n\r\n   uint public numQuizzes;\r\n\r\n   event fetchquiz (uint indexed _quizId);   // get quiz questions\r\n   event quiztaken (uint indexed _quizId);   // quiz answers submitted\r\n\r\n   constructor () public {\r\n      makeQuiz(\"Test Quiz 1\", 10, \"2+2=\", \"4\", \"3\", \"5\", \"2\");\r\n   }\r\n\r\n   function makeQuiz (string memory _name, uint _pool, string memory _question, string memory _ans1, string memory _ans2, string memory _ans3, string memory _ans4) private {\r\n      numQuizzes ++;\r\n      quizzes[numQuizzes] = QuizEvent(numQuizzes, _name, _pool, Question(_question, _ans1, _ans2, _ans3, _ans4));\r\n   }\r\n\r\n   function getQuiz (uint _quizId) public {\r\n      require(!quizzes[_quizId].attempts[msg.sender]);\r\n      require(_quizId > 0 && _quizId <= numQuizzes);\r\n      quizzes[_quizId].attempts[msg.sender] = true;\r\n      emit fetchquiz(_quizId);\r\n   }\r\n\r\n   function scoreAttempt (uint _quizId, string memory _ans) public returns (bool) {\r\n      require(!quizzes[_quizId].attempts[msg.sender]);\r\n      require(_quizId > 0 && _quizId <= numQuizzes);\r\n\r\n      if(keccak256(abi.encodePacked(quizzes[_quizId].q1.correctAns)) == keccak256(abi.encodePacked(_ans))) {\r\n         return true;\r\n      } else {\r\n         return false;\r\n      }\r\n   }\r\n}\r\n",
  "sourcePath": "C:/Users/micha/Documents/GSU/Spring 2019/Blockchain/Lottery/contracts/Quiz.sol",
  "compiler": {
    "name": "solc",
    "version": "0.5.0+commit.1d4f565a.Emscripten.clang"
  },
  "schemaVersion": "3.0.0",
  "updatedAt": "2019-04-07T21:07:42.779Z",
  "devdoc": {
    "methods": {}
  },
  "userdoc": {
    "methods": {}
  }
}