{
  "contractName": "Quiz",
  "abi": [
    {
      "constant": true,
      "inputs": [],
      "name": "numQuizzes",
      "outputs": [
        {
          "name": "",
          "type": "uint256"
        }
      ],
      "payable": false,
      "stateMutability": "view",
      "type": "function",
      "signature": "0x9a8fc0b8"
    },
    {
      "inputs": [],
      "payable": false,
      "stateMutability": "nonpayable",
      "type": "constructor",
      "signature": "constructor"
    },
    {
      "anonymous": false,
      "inputs": [
        {
          "indexed": true,
          "name": "_quizId",
          "type": "uint256"
        }
      ],
      "name": "fetchquiz",
      "type": "event",
      "signature": "0x74b91515a354f13aa884eed46cea33aa37533250f496f869b474fb7449099a2b"
    },
    {
      "anonymous": false,
      "inputs": [
        {
          "indexed": true,
          "name": "_quizId",
          "type": "uint256"
        }
      ],
      "name": "quiztaken",
      "type": "event",
      "signature": "0xe47940e15c49852a5ea2c5fbe9b1507d39b06a6504f4c2404f6e131ec222af0a"
    },
    {
      "constant": false,
      "inputs": [
        {
          "name": "_name",
          "type": "string"
        },
        {
          "name": "_fee",
          "type": "uint256"
        },
        {
          "name": "_pool",
          "type": "uint256"
        },
        {
          "name": "_question",
          "type": "string"
        },
        {
          "name": "_ans1",
          "type": "string"
        },
        {
          "name": "_ans2",
          "type": "string"
        },
        {
          "name": "_ans3",
          "type": "string"
        },
        {
          "name": "_ans4",
          "type": "string"
        }
      ],
      "name": "makeQuiz",
      "outputs": [],
      "payable": false,
      "stateMutability": "nonpayable",
      "type": "function",
      "signature": "0x0276266e"
    },
    {
      "constant": true,
      "inputs": [
        {
          "name": "_quizId",
          "type": "uint256"
        }
      ],
      "name": "getQuizDisp",
      "outputs": [
        {
          "name": "",
          "type": "uint256"
        },
        {
          "name": "",
          "type": "string"
        },
        {
          "name": "",
          "type": "uint256"
        },
        {
          "name": "",
          "type": "uint256"
        }
      ],
      "payable": false,
      "stateMutability": "view",
      "type": "function",
      "signature": "0x60907be8"
    },
    {
      "constant": false,
      "inputs": [
        {
          "name": "_quizId",
          "type": "uint256"
        }
      ],
      "name": "setAttempt",
      "outputs": [],
      "payable": false,
      "stateMutability": "nonpayable",
      "type": "function",
      "signature": "0xa0558879"
    },
    {
      "constant": true,
      "inputs": [
        {
          "name": "_quizId",
          "type": "uint256"
        }
      ],
      "name": "canSkip",
      "outputs": [
        {
          "name": "",
          "type": "bool"
        }
      ],
      "payable": false,
      "stateMutability": "view",
      "type": "function",
      "signature": "0xe04d5a8d"
    },
    {
      "constant": true,
      "inputs": [
        {
          "name": "_quizId",
          "type": "uint256"
        }
      ],
      "name": "getQuiz",
      "outputs": [
        {
          "name": "",
          "type": "string"
        },
        {
          "name": "",
          "type": "string"
        },
        {
          "name": "",
          "type": "string"
        },
        {
          "name": "",
          "type": "string"
        },
        {
          "name": "",
          "type": "string"
        }
      ],
      "payable": false,
      "stateMutability": "view",
      "type": "function",
      "signature": "0xa3f7e096"
    },
    {
      "constant": false,
      "inputs": [
        {
          "name": "_quizId",
          "type": "uint256"
        }
      ],
      "name": "payToPlay",
      "outputs": [],
      "payable": true,
      "stateMutability": "payable",
      "type": "function",
      "signature": "0x7b82578f"
    },
    {
      "constant": true,
      "inputs": [],
      "name": "getNum",
      "outputs": [
        {
          "name": "",
          "type": "uint256"
        }
      ],
      "payable": false,
      "stateMutability": "view",
      "type": "function",
      "signature": "0x67e0badb"
    },
    {
      "constant": true,
      "inputs": [
        {
          "name": "_quizId",
          "type": "uint256"
        }
      ],
      "name": "getPoolAmount",
      "outputs": [
        {
          "name": "",
          "type": "uint256"
        }
      ],
      "payable": false,
      "stateMutability": "view",
      "type": "function",
      "signature": "0x41af4858"
    },
    {
      "constant": true,
      "inputs": [
        {
          "name": "_quizId",
          "type": "uint256"
        },
        {
          "name": "_ans",
          "type": "string"
        }
      ],
      "name": "scoreAttempt",
      "outputs": [
        {
          "name": "",
          "type": "bool"
        }
      ],
      "payable": false,
      "stateMutability": "view",
      "type": "function",
      "signature": "0x888c9663"
    },
    {
      "constant": false,
      "inputs": [
        {
          "name": "_quizId",
          "type": "uint256"
        },
        {
          "name": "_winner",
          "type": "address"
        }
      ],
      "name": "awardLottery",
      "outputs": [],
      "payable": false,
      "stateMutability": "nonpayable",
      "type": "function",
      "signature": "0x4f3097e0"
    }
  ],
  "bytecode": "0x60806040523480156200001157600080fd5b5060006002819055506200017b6040805190810160405280600981526020017f54657374205175697a0000000000000000000000000000000000000000000000815250600160006040805190810160405280600481526020017f322b323d000000000000000000000000000000000000000000000000000000008152506040805190810160405280600181526020017f34000000000000000000000000000000000000000000000000000000000000008152506040805190810160405280600181526020017f33000000000000000000000000000000000000000000000000000000000000008152506040805190810160405280600181526020017f35000000000000000000000000000000000000000000000000000000000000008152506040805190810160405280600181526020017f320000000000000000000000000000000000000000000000000000000000000081525062000181640100000000026401000000009004565b620004e0565b60026000815480929190600101919050555060c06040519081016040528060025481526020013373ffffffffffffffffffffffffffffffffffffffff16815260200189815260200188815260200187815260200160a0604051908101604052808881526020018781526020018681526020018581526020018481525081525060008060025481526020019081526020016000206000820151816000015560208201518160010160006101000a81548173ffffffffffffffffffffffffffffffffffffffff021916908373ffffffffffffffffffffffffffffffffffffffff16021790555060408201518160020190805190602001906200028392919062000431565b50606082015181600301556080820151816004015560a0820151816005016000820151816000019080519060200190620002bf92919062000431565b506020820151816001019080519060200190620002de92919062000431565b506040820151816002019080519060200190620002fd92919062000431565b5060608201518160030190805190602001906200031c92919062000431565b5060808201518160040190805190602001906200033b92919062000431565b505050905050608060405190810160405280600254815260200189815260200188815260200187815250600160006002548152602001908152602001600020600082015181600001556020820151816001019080519060200190620003a292919062000431565b50604082015181600201556060820151816003015590505060016000806002548152602001908152602001600020600b0160003373ffffffffffffffffffffffffffffffffffffffff1673ffffffffffffffffffffffffffffffffffffffff16815260200190815260200160002060006101000a81548160ff0219169083151502179055505050505050505050565b828054600181600116156101000203166002900490600052602060002090601f016020900481019282601f106200047457805160ff1916838001178555620004a5565b82800160010185558215620004a5579182015b82811115620004a457825182559160200191906001019062000487565b5b509050620004b49190620004b8565b5090565b620004dd91905b80821115620004d9576000816000905550600101620004bf565b5090565b90565b6119aa80620004f06000396000f3fe6080604052600436106100af576000357c0100000000000000000000000000000000000000000000000000000000900463ffffffff1680630276266e146100b457806341af4858146104845780634f3097e0146104d357806360907be81461052e57806367e0badb146105f75780637b82578f14610622578063888c9663146106505780639a8fc0b81461073a578063a055887914610765578063a3f7e096146107a0578063e04d5a8d14610a04575b600080fd5b3480156100c057600080fd5b5061048260048036036101008110156100d857600080fd5b81019080803590602001906401000000008111156100f557600080fd5b82018360208201111561010757600080fd5b8035906020019184600183028401116401000000008311171561012957600080fd5b91908080601f016020809104026020016040519081016040528093929190818152602001838380828437600081840152601f19601f8201169050808301925050505050505091929192908035906020019092919080359060200190929190803590602001906401000000008111156101a057600080fd5b8201836020820111156101b257600080fd5b803590602001918460018302840111640100000000831117156101d457600080fd5b91908080601f016020809104026020016040519081016040528093929190818152602001838380828437600081840152601f19601f8201169050808301925050505050505091929192908035906020019064010000000081111561023757600080fd5b82018360208201111561024957600080fd5b8035906020019184600183028401116401000000008311171561026b57600080fd5b91908080601f016020809104026020016040519081016040528093929190818152602001838380828437600081840152601f19601f820116905080830192505050505050509192919290803590602001906401000000008111156102ce57600080fd5b8201836020820111156102e057600080fd5b8035906020019184600183028401116401000000008311171561030257600080fd5b91908080601f016020809104026020016040519081016040528093929190818152602001838380828437600081840152601f19601f8201169050808301925050505050505091929192908035906020019064010000000081111561036557600080fd5b82018360208201111561037757600080fd5b8035906020019184600183028401116401000000008311171561039957600080fd5b91908080601f016020809104026020016040519081016040528093929190818152602001838380828437600081840152601f19601f820116905080830192505050505050509192919290803590602001906401000000008111156103fc57600080fd5b82018360208201111561040e57600080fd5b8035906020019184600183028401116401000000008311171561043057600080fd5b91908080601f016020809104026020016040519081016040528093929190818152602001838380828437600081840152601f19601f820116905080830192505050505050509192919290505050610a57565b005b34801561049057600080fd5b506104bd600480360360208110156104a757600080fd5b8101908080359060200190929190505050610cf9565b6040518082815260200191505060405180910390f35b3480156104df57600080fd5b5061052c600480360360408110156104f657600080fd5b8101908080359060200190929190803573ffffffffffffffffffffffffffffffffffffffff169060200190929190505050610d34565b005b34801561053a57600080fd5b506105676004803603602081101561055157600080fd5b8101908080359060200190929190505050610e85565b6040518085815260200180602001848152602001838152602001828103825285818151815260200191508051906020019080838360005b838110156105b957808201518184015260208101905061059e565b50505050905090810190601f1680156105e65780820380516001836020036101000a031916815260200191505b509550505050505060405180910390f35b34801561060357600080fd5b5061060c610f9c565b6040518082815260200191505060405180910390f35b61064e6004803603602081101561063857600080fd5b8101908080359060200190929190505050610fa6565b005b34801561065c57600080fd5b506107206004803603604081101561067357600080fd5b81019080803590602001909291908035906020019064010000000081111561069a57600080fd5b8201836020820111156106ac57600080fd5b803590602001918460018302840111640100000000831117156106ce57600080fd5b91908080601f016020809104026020016040519081016040528093929190818152602001838380828437600081840152601f19601f820116905080830192505050505050509192919290505050611111565b604051808215151515815260200191505060405180910390f35b34801561074657600080fd5b5061074f611313565b6040518082815260200191505060405180910390f35b34801561077157600080fd5b5061079e6004803603602081101561078857600080fd5b8101908080359060200190929190505050611319565b005b3480156107ac57600080fd5b506107d9600480360360208110156107c357600080fd5b8101908080359060200190929190505050611387565b60405180806020018060200180602001806020018060200186810386528b818151815260200191508051906020019080838360005b8381101561082957808201518184015260208101905061080e565b50505050905090810190601f1680156108565780820380516001836020036101000a031916815260200191505b5086810385528a818151815260200191508051906020019080838360005b8381101561088f578082015181840152602081019050610874565b50505050905090810190601f1680156108bc5780820380516001836020036101000a031916815260200191505b50868103845289818151815260200191508051906020019080838360005b838110156108f55780820151818401526020810190506108da565b50505050905090810190601f1680156109225780820380516001836020036101000a031916815260200191505b50868103835288818151815260200191508051906020019080838360005b8381101561095b578082015181840152602081019050610940565b50505050905090810190601f1680156109885780820380516001836020036101000a031916815260200191505b50868103825287818151815260200191508051906020019080838360005b838110156109c15780820151818401526020810190506109a6565b50505050905090810190601f1680156109ee5780820380516001836020036101000a031916815260200191505b509a505050505050505050505060405180910390f35b348015610a1057600080fd5b50610a3d60048036036020811015610a2757600080fd5b81019080803590602001909291905050506117a9565b604051808215151515815260200191505060405180910390f35b60026000815480929190600101919050555060c06040519081016040528060025481526020013373ffffffffffffffffffffffffffffffffffffffff16815260200189815260200188815260200187815260200160a0604051908101604052808881526020018781526020018681526020018581526020018481525081525060008060025481526020019081526020016000206000820151816000015560208201518160010160006101000a81548173ffffffffffffffffffffffffffffffffffffffff021916908373ffffffffffffffffffffffffffffffffffffffff1602179055506040820151816002019080519060200190610b57929190611880565b50606082015181600301556080820151816004015560a0820151816005016000820151816000019080519060200190610b91929190611880565b506020820151816001019080519060200190610bae929190611880565b506040820151816002019080519060200190610bcb929190611880565b506060820151816003019080519060200190610be8929190611880565b506080820151816004019080519060200190610c05929190611880565b505050905050608060405190810160405280600254815260200189815260200188815260200187815250600160006002548152602001908152602001600020600082015181600001556020820151816001019080519060200190610c6a929190611880565b50604082015181600201556060820151816003015590505060016000806002548152602001908152602001600020600b0160003373ffffffffffffffffffffffffffffffffffffffff1673ffffffffffffffffffffffffffffffffffffffff16815260200190815260200160002060006101000a81548160ff0219169083151502179055505050505050505050565b60008082118015610d0c57506002548211155b1515610d1757600080fd5b600080838152602001908152602001600020600401549050919050565b600080838152602001908152602001600020600a0160008273ffffffffffffffffffffffffffffffffffffffff1673ffffffffffffffffffffffffffffffffffffffff16815260200190815260200160002060009054906101000a900460ff161515610d9f57600080fd5b600080838152602001908152602001600020600b0160008273ffffffffffffffffffffffffffffffffffffffff1673ffffffffffffffffffffffffffffffffffffffff16815260200190815260200160002060009054906101000a900460ff161515610e0a57600080fd5b8073ffffffffffffffffffffffffffffffffffffffff166108fc600080858152602001908152602001600020600401549081150290604051600060405180830381858888f19350505050158015610e65573d6000803e3d6000fd5b506000806000848152602001908152602001600020600401819055505050565b60006060600080610e94611900565b600160008781526020019081526020016000206080604051908101604052908160008201548152602001600182018054600181600116156101000203166002900480601f016020809104026020016040519081016040528092919081815260200182805460018160011615610100020316600290048015610f565780601f10610f2b57610100808354040283529160200191610f56565b820191906000526020600020905b815481529060010190602001808311610f3957829003601f168201915b5050505050815260200160028201548152602001600382015481525050905080600001518160200151826040015183606001518292509450945094509450509193509193565b6000600254905090565b600081118015610fb857506002548111155b1515610fc357600080fd5b600080828152602001908152602001600020600b0160003373ffffffffffffffffffffffffffffffffffffffff1673ffffffffffffffffffffffffffffffffffffffff16815260200190815260200160002060009054906101000a900460ff1615151561102f57600080fd5b60008082815260200190815260200160002060030154341015151561105357600080fd5b34600080838152602001908152602001600020600401600082825401925050819055506001600080838152602001908152602001600020600a0160003373ffffffffffffffffffffffffffffffffffffffff1673ffffffffffffffffffffffffffffffffffffffff16815260200190815260200160002060006101000a81548160ff021916908315150217905550807f74b91515a354f13aa884eed46cea33aa37533250f496f869b474fb7449099a2b60405160405180910390a250565b6000808311801561112457506002548311155b151561112f57600080fd5b600080848152602001908152602001600020600a0160003373ffffffffffffffffffffffffffffffffffffffff1673ffffffffffffffffffffffffffffffffffffffff16815260200190815260200160002060009054906101000a900460ff16151561119a57600080fd5b600080848152602001908152602001600020600b0160003373ffffffffffffffffffffffffffffffffffffffff1673ffffffffffffffffffffffffffffffffffffffff16815260200190815260200160002060009054906101000a900460ff16151561120557600080fd5b600080848152602001908152602001600020600501600101604051602001808280546001816001161561010002031660029004801561127b5780601f1061125957610100808354040283529182019161127b565b820191906000526020600020905b815481529060010190602001808311611267575b505091505060405160208183030381529060405280519060200120826040516020018082805190602001908083835b6020831015156112cf57805182526020820191506020810190506020830392506112aa565b6001836020036101000a0380198251168184511680821785525050505050509050019150506040516020818303038152906040528051906020012014905092915050565b60025481565b6001600080838152602001908152602001600020600b0160003373ffffffffffffffffffffffffffffffffffffffff1673ffffffffffffffffffffffffffffffffffffffff16815260200190815260200160002060006101000a81548160ff02191690831515021790555050565b60608060608060606000861180156113a157506002548611155b15156113ac57600080fd5b600080878152602001908152602001600020600b0160003373ffffffffffffffffffffffffffffffffffffffff1673ffffffffffffffffffffffffffffffffffffffff16815260200190815260200160002060009054906101000a900460ff1615151561141857600080fd5b611420611929565b60008088815260200190815260200160002060050160a06040519081016040529081600082018054600181600116156101000203166002900480601f0160208091040260200160405190810160405280929190818152602001828054600181600116156101000203166002900480156114da5780601f106114af576101008083540402835291602001916114da565b820191906000526020600020905b8154815290600101906020018083116114bd57829003601f168201915b50505050508152602001600182018054600181600116156101000203166002900480601f01602080910402602001604051908101604052809291908181526020018280546001816001161561010002031660029004801561157c5780601f106115515761010080835404028352916020019161157c565b820191906000526020600020905b81548152906001019060200180831161155f57829003601f168201915b50505050508152602001600282018054600181600116156101000203166002900480601f01602080910402602001604051908101604052809291908181526020018280546001816001161561010002031660029004801561161e5780601f106115f35761010080835404028352916020019161161e565b820191906000526020600020905b81548152906001019060200180831161160157829003601f168201915b50505050508152602001600382018054600181600116156101000203166002900480601f0160208091040260200160405190810160405280929190818152602001828054600181600116156101000203166002900480156116c05780601f10611695576101008083540402835291602001916116c0565b820191906000526020600020905b8154815290600101906020018083116116a357829003601f168201915b50505050508152602001600482018054600181600116156101000203166002900480601f0160208091040260200160405190810160405280929190818152602001828054600181600116156101000203166002900480156117625780601f1061173757610100808354040283529160200191611762565b820191906000526020600020905b81548152906001019060200180831161174557829003601f168201915b505050505081525050905080600001518160200151826040015183606001518460800151849450839350829250819150809050955095509550955095505091939590929450565b600080600080848152602001908152602001600020600a0160003373ffffffffffffffffffffffffffffffffffffffff1673ffffffffffffffffffffffffffffffffffffffff16815260200190815260200160002060009054906101000a900460ff1680156118755750600080848152602001908152602001600020600b0160003373ffffffffffffffffffffffffffffffffffffffff1673ffffffffffffffffffffffffffffffffffffffff16815260200190815260200160002060009054906101000a900460ff16155b905080915050919050565b828054600181600116156101000203166002900490600052602060002090601f016020900481019282601f106118c157805160ff19168380011785556118ef565b828001600101855582156118ef579182015b828111156118ee5782518255916020019190600101906118d3565b5b5090506118fc9190611959565b5090565b608060405190810160405280600081526020016060815260200160008152602001600081525090565b60a06040519081016040528060608152602001606081526020016060815260200160608152602001606081525090565b61197b91905b8082111561197757600081600090555060010161195f565b5090565b9056fea165627a7a72305820730ee5b35fab875bf444b0cdd70d25ad953179a8d76749c9e7b5d538bc6a2ac60029",
  "source": "pragma solidity ^0.5.0;\r\n\r\ncontract Quiz {\r\n   // Structure of a Question\r\n   // Each Question has four answer choices and only one correct anser choice\r\n   struct Question {\r\n      string question;\r\n      string correctAns;\r\n      string wrongAns1;\r\n      string wrongAns2;\r\n      string wrongAns3;\r\n   }\r\n\r\n   // Structure of a Quiz\r\n   struct QuizEvent {\r\n      uint id;\r\n      address creator;\r\n      string name;\r\n      uint fee;\r\n      uint pool;\r\n      Question q1;\r\n      mapping(address => bool) hasPaid;\r\n      mapping(address => bool) attempts;\r\n   }\r\n\r\n   // Structure of a displayable quizzes\r\n   // Stores the same information as a quiz except for question information\r\n   struct QuizDisplayable {\r\n      uint id;\r\n      string name;\r\n      uint fee;\r\n      uint pool;\r\n      mapping(address => bool) attempts;\r\n   }\r\n\r\n   mapping(uint => QuizEvent) quizzes;\r\n   mapping(uint => QuizDisplayable) quizDisp;\r\n\r\n   uint public numQuizzes;\r\n\r\n   event fetchquiz (uint indexed _quizId);   // get quiz questions\r\n   event quiztaken (uint indexed _quizId);   // quiz answers submitted\r\n\r\n   // Upon contract creation, initialize number of quizzes to 0 and create a new Quiz Event\r\n   constructor () public {\r\n      numQuizzes = 0;\r\n      makeQuiz(\"Test Quiz\", 1, 0, \"2+2=\", \"4\", \"3\", \"5\", \"2\");\r\n   }\r\n\r\n   // Increment number of quizzes\r\n   // Create a new QuizEvent and add it to the list of quizzes\r\n   // Create a new QuizDisplayable and add it to the list of displayable quizzes\r\n   // Add the creator as a user who has attempted so the creator cannot attempt the quiz\r\n   function makeQuiz (string memory _name, uint _fee, uint _pool, string memory _question, string memory _ans1, string memory _ans2, string memory _ans3, string memory _ans4) public {\r\n      numQuizzes ++;\r\n      quizzes[numQuizzes] = QuizEvent(numQuizzes, msg.sender,_name, _fee, _pool, Question(_question, _ans1, _ans2, _ans3, _ans4));\r\n      quizDisp[numQuizzes] = QuizDisplayable(numQuizzes, _name, _fee, _pool);\r\n      quizzes[numQuizzes].attempts[msg.sender] = true;\r\n   }\r\n\r\n   // Returns quiz information for _quizId without returning the questions\r\n   function getQuizDisp(uint _quizId) view public returns(uint, string memory, uint, uint) {\r\n      QuizDisplayable memory temp = quizDisp[_quizId];\r\n      return (temp.id,temp.name,temp.fee,temp.pool);\r\n   }\r\n\r\n   // Adds the user to the list of users who have attemped this quiz\r\n   function setAttempt(uint _quizId) public {\r\n      quizzes[_quizId].attempts[msg.sender] = true;\r\n   }\r\n\r\n   // Checks to see if the user has paid but has not attempted\r\n   // This is used to bypass the front-end form to submit the fee\r\n   function canSkip(uint _quizId) view public returns (bool) {\r\n      bool skip = quizzes[_quizId].hasPaid[msg.sender] && !quizzes[_quizId].attempts[msg.sender];\r\n      return skip;\r\n   }\r\n\r\n   // Requires that the quiz event exists\r\n   // Requires that the account trying to access the quiz information has not taken it before\r\n   // Once the account receives the quiz, add the account to the list of accounts that have attempted this quiz\r\n   function getQuiz (uint _quizId) view public returns (string memory, string memory, string memory, string memory, string memory) {\r\n      require(_quizId > 0 && _quizId <= numQuizzes);\r\n      require(!quizzes[_quizId].attempts[msg.sender]);\r\n      Question memory q = quizzes[_quizId].q1;\r\n      return (q.question, q.correctAns, q.wrongAns1, q.wrongAns2, q.wrongAns3);\r\n   }\r\n\r\n   // Requires that the quiz exists\r\n   // Requires that the account has not attempted the quiz before\r\n   // Allows users to send money\r\n   // The contract's account balance will hold all of the ether for all QuizEvent pools\r\n   // Require that amount paid is greater than equal to current amount in Pool\r\n   // Add fee to the pool of _quizId\r\n   // Add the user to the mapping hasPaid to indicate that the user has paid the appropriate fee to take the quiz\r\n   // Fetch the quiz for the user to access.\r\n   function payToPlay (uint _quizId) public payable {\r\n      require(_quizId > 0 && _quizId <= numQuizzes); //checks if quiz exist\r\n      require(!quizzes[_quizId].attempts[msg.sender]); //checks if they have not attempted\r\n      require(msg.value >= quizzes[_quizId].fee);//if they paid the right amount\r\n      quizzes[_quizId].pool += msg.value;\r\n      quizzes[_quizId].hasPaid[msg.sender] = true;\r\n      emit fetchquiz(_quizId);\r\n   }\r\n\r\n   // Returns the number of QuizEvents\r\n   function getNum() public view returns (uint) {\r\n       return numQuizzes;\r\n   }\r\n\r\n   // Requires that the quiz exists\r\n   // Returns the current pool amount of the QuizEvent _quizId\r\n   //Nice to show the user how much reward a certain quiz has\r\n   function getPoolAmount (uint _quizId) view public returns (uint) {\r\n      require(_quizId > 0 && _quizId <= numQuizzes); //checking if quiz exosts\r\n      return quizzes[_quizId].pool; //returns pool balance\r\n   }\r\n\r\n   // Requires that the quiz event exists\r\n   // Requires that the account has paid the fee to attempt the quiz\r\n   // Requires that the account has attempted the quiz\r\n   // Hashes the question's correct answer and the answer submitted by the account and compares the two Hashes\r\n   // If the two hashes are equal, then return true, otherwise false\r\n   function scoreAttempt (uint _quizId, string memory _ans) view public returns (bool) {\r\n      require(_quizId > 0 && _quizId <= numQuizzes);\r\n      require(quizzes[_quizId].hasPaid[msg.sender]);\r\n      require(quizzes[_quizId].attempts[msg.sender]);\r\n\r\n      return (keccak256(abi.encodePacked(_ans)) == keccak256(abi.encodePacked(quizzes[_quizId].q1.correctAns)));\r\n   }\r\n\r\n   // Requires that the account has paid the fee to attempt the quiz\r\n   // Requires that the account has attempted the quiz\r\n   // Transfer the amount of ether in the pool of _quizId to the winner\r\n   // Set the _quizId pool amount to 0\r\n   function awardLottery (uint _quizId, address payable _winner) public {\r\n      require(quizzes[_quizId].hasPaid[_winner]);\r\n      require(quizzes[_quizId].attempts[_winner]);\r\n      _winner.transfer(quizzes[_quizId].pool);\r\n      quizzes[_quizId].pool = 0;\r\n   }\r\n}\r\n",
  "sourcePath": "C:/Users/micha/Documents/GSU/Spring 2019/Blockchain/Lottery/contracts/Quiz.sol",
  "compiler": {
    "name": "solc",
    "version": "0.5.0+commit.1d4f565a.Emscripten.clang"
  },
  "schemaVersion": "3.0.6",
  "updatedAt": "2019-04-29T15:56:58.962Z",
  "devdoc": {
    "methods": {}
  },
  "userdoc": {
    "methods": {}
  }
}